:020000040000fa
:080000000002040000000000f2
:020000040000fa
:04000800e002000012
:020000040000fa
:04000c00e00200000e
:020000040000fa
:04001000e00200000a
:020000040000fa
:04001400e002000006
:020000040000fa
:04001800e002000002
:020000040000fa
:04001c00e0020000fe
:020000040000fa
:04002000e0020000fa
:020000040000fa
:04002400e0020000f6
:020000040000fa
:04002800e0020000f2
:020000040000fa
:04002c00e0020000ee
:020000040000fa
:04003000e0020000ea
:020000040000fa
:04003400e0020000e6
:020000040000fa
:04003800e0020000e2
:020000040000fa
:04003c00e0020000de
:020000040000fa
:04004000e0020000da
:020000040000fa
:04004400e0020000d6
:020000040000fa
:040048006808000044
:020000040000fa
:04004c00e0020000ce
:020000040000fa
:04005000e0020000ca
:020000040000fa
:04005400e0020000c6
:020000040000fa
:04005800e0020000c2
:020000040000fa
:04005c00e0020000be
:020000040000fa
:04006000e0020000ba
:020000040000fa
:04006400e0020000b6
:020000040000fa
:04006800e0020000b2
:020000040000fa
:04006c00e0020000ae
:020000040000fa
:04007000e0020000aa
:020000040000fa
:04007400e0020000a6
:020000040000fa
:04007800e0020000a2
:020000040000fa
:04007c00e00200009e
:020000040000fa
:04008000e00200009a
:020000040000fa
:04008400e002000096
:020000040000fa
:04008800e002000092
:020000040000fa
:04008c00e00200008e
:020000040000fa
:04009000e00200008a
:020000040000fa
:04009400e002000086
:020000040000fa
:04009800e002000082
:020000040000fa
:04009c00e00200007e
:020000040000fa
:0400a000e00200007a
:020000040000fa
:0400a400e002000076
:020000040000fa
:0400a800e002000072
:020000040000fa
:0400ac00e00200006e
:020000040000fa
:0400b000e00200006a
:020000040000fa
:0400b400e002000066
:020000040000fa
:0400b800e002000062
:020000040000fa
:0400bc00e00200005e
:020000040000fa
:0400c000e00200005a
:020000040000fa
:0400c400e002000056
:020000040000fa
:0400c800e002000052
:020000040000fa
:0400cc00e00200004e
:020000040000fa
:0400d000e00200004a
:020000040000fa
:0400d400e002000046
:020000040000fa
:0400d800e002000042
:020000040000fa
:0400dc00e00200003e
:020000040000fa
:0400e000e00200003a
:020000040000fa
:0400e400e002000036
:020000040000fa
:0400e800e002000032
:020000040000fa
:0400ec00e00200002e
:020000040000fa
:0400f000e00200002a
:020000040000fa
:0400f400e002000026
:020000040000fa
:0400f800e002000022
:020000040000fa
:0400fc00e00200001e
:020000040000fa
:04010000e002000019
:020000040000fa
:04010400e002000015
:020000040000fa
:04010800e002000011
:020000040000fa
:04010c00e00200000d
:020000040000fa
:04011000e002000009
:020000040000fa
:04011400e002000005
:020000040000fa
:04011800e002000001
:020000040000fa
:04011c00e0020000fd
:020000040000fa
:04012000e0020000f9
:020000040000fa
:04012400e0020000f5
:020000040000fa
:04012800e0020000f1
:020000040000fa
:04012c00e0020000ed
:020000040000fa
:04013000e0020000e9
:020000040000fa
:04013400e0020000e5
:020000040000fa
:04013800e0020000e1
:020000040000fa
:04013c00e0020000dd
:020000040000fa
:04014000e0020000d9
:020000040000fa
:04014400e0020000d5
:020000040000fa
:04014800e0020000d1
:020000040000fa
:04014c00e0020000cd
:020000040000fa
:04015000e0020000c9
:020000040000fa
:04015400e0020000c5
:020000040000fa
:04015800e0020000c1
:020000040000fa
:04015c00e0020000bd
:020000040000fa
:04016000e0020000b9
:020000040000fa
:04016400e0020000b5
:020000040000fa
:04016800e0020000b1
:020000040000fa
:04016c00e0020000ad
:020000040000fa
:04017000e0020000a9
:020000040000fa
:04017400e0020000a5
:020000040000fa
:04017800e0020000a1
:020000040000fa
:04017c00e00200009d
:020000040000fa
:04018000e002000099
:020000040000fa
:04018400e002000095
:020000040000fa
:04018800e002000091
:020000040000fa
:04018c00e00200008d
:020000040000fa
:04019000e002000089
:020000040000fa
:04019400e002000085
:020000040000fa
:04019800e002000081
:020000040000fa
:04019c00e00200007d
:020000040000fa
:0401a000e002000079
:020000040000fa
:0401a400e002000075
:020000040000fa
:0401a800e002000071
:020000040000fa
:0401ac00e00200006d
:020000040000fa
:0401b000e002000069
:020000040000fa
:0401b400e002000065
:020000040000fa
:0401b800e002000061
:020000040000fa
:0401bc00e00200005d
:020000040000fa
:0401c000e002000059
:020000040000fa
:0401c400e002000055
:020000040000fa
:0401c800e002000051
:020000040000fa
:0401cc00e00200004d
:020000040000fa
:0401d000e002000049
:020000040000fa
:0401d400e002000045
:020000040000fa
:0401d800e002000041
:020000040000fa
:0401dc00e00200003d
:020000040000fa
:0401e000e002000039
:020000040000fa
:0401e400e002000035
:020000040000fa
:0401e800e002000031
:020000040000fa
:0401ec00e00200002d
:020000040000fa
:0401f000e002000029
:020000040000fa
:0401f400e002000025
:020000040000fa
:0401f800e002000021
:020000040000fa
:0401fc00e00200001d
:020000040000fa
:04020000e002000018
:020000040000fa
:04020400e002000014
:020000040000fa
:04020800e002000010
:020000040000fa
:04020c00e00200000c
:020000040000fa
:04021000e002000008
:020000040000fa
:04021400e002000004
:020000040000fa
:04021800e002000000
:020000040000fa
:04021c00e0020000fc
:020000040000fa
:04022000e0020000f8
:020000040000fa
:04022400e0020000f4
:020000040000fa
:04022800e0020000f0
:020000040000fa
:04022c00e0020000ec
:020000040000fa
:04023000e0020000e8
:020000040000fa
:04023400e0020000e4
:020000040000fa
:04023800e0020000e0
:020000040000fa
:04023c00e0020000dc
:020000040000fa
:04024000e0020000d8
:020000040000fa
:04024400e0020000d4
:020000040000fa
:04024800e0020000d0
:020000040000fa
:04024c00e0020000cc
:020000040000fa
:04025000e0020000c8
:020000040000fa
:04025400e0020000c4
:020000040000fa
:04025800e0020000c0
:020000040000fa
:04025c00e0020000bc
:020000040000fa
:04026000e0020000b8
:020000040000fa
:04026400e0020000b4
:020000040000fa
:04026800e0020000b0
:020000040000fa
:04026c00e0020000ac
:020000040000fa
:04027000e0020000a8
:020000040000fa
:04027400e0020000a4
:020000040000fa
:04027800e0020000a0
:020000040000fa
:04027c00e00200009c
:020000040000fa
:04028000e002000098
:020000040000fa
:100400004f0221000eff27000e01880000000000af
:10041000000020000000e000020032000001200087
:10042000200288000c000700408e20000100200000
:100430000f000700000020000000e0000200320072
:100440000000020000000000a808020000000000f8
:100450000040da000000fe00200120000000e00063
:1004600002003200002020009001880000000600f9
:10047000a1028800800078000000eb001a0037001d
:10048000e280400054a0b4009101ba00e280400034
:1004900054a0b4009102ba00e280400054a0b4001d
:1004a0000002eb00472bde00f507b200a601880032
:1004b000602ce10008003a000049eb000201e8006e
:1004c000020039003420ec0002f0a0008301e900b2
:1004d000f9ff3e00040037006128e100010032000e
:1004e0000082eb000b00070011c3ba001101ba0033
:1004f0000604e00003003a000200e000e0ff3a00da
:1005000000000600f607b200a6028800820078000c
:10051000f5ff370004d0a300e20f49001c003900aa
:10052000810278003549ba000201e8000200390072
:100530003420ec0002f0a0008301e9000f0032003b
:100540002549ba000201e800020039003420ec001d
:1005500002f0a0008301e900080032000400e0007e
:100560000600320015c9ba000201e8000200390095
:100570003420ec0002f0a0008301e9008180e80053
:1005800054a0b4000300e000e2ff3a0000000600bf
:100590009102ba00055978008301e900f7ff3200a3
:1005a000c82ade00055978008301e900f3ff320014
:1005b0000400e000f1ff320011d9ba00eeff37006d
:1005c0000040da000000fe006011b80000003700b3
:1005d000889fbe008a9fbe000082700004027100e6
:1005e00004827100260032000004be000200be003a
:1005f0006011b8006b092000950220000182cf0035
:100600000a0039000541b1000082cf00070039001f
:100610000541b1000982cf00040039000541b10055
:100620000882cf00010039000541b10005425200a7
:10063000120032000a003b008281710061016400f7
:100640008100d1000080d3008984d3000884d300c6
:100650008b05e8000442e800f7ff3a000700370086
:100660000804440089844c00000048008180480050
:100670008b05e9000442e900f9ff3a000300070096
:100680004f05be004f04be000000060081002000a0
:10069000618055000b003d000b00200061fe2f0023
:1006a0000100e1001d0034008281710061016400dd
:1006b0008904d1000884d3000000e800faff3a0062
:1006c00071002000610064000300700002006000ff
:1006d0000900320061044400e0844c000988a50050
:1006e000050032008b05e8006808e10002003a00ce
:1006f0008904d1000884d300f20f20000258e100e1
:1007000005003d00c75ddd00f907b2008980750076
:1007100008007800000006000bf827008b00780026
:0407200000000500d0
:020000040000fa
:100724003f0600005b4f0000666d00007d0700007f
:100734007f6f0000777c0000395e00007971000053
:0407440000000000b1
:020000040000fa
:100748000000fa000005200001002000af020700a9
:100758001602a80000000000b010800061006000d0
:100768000000e000fcff3a00000520000100200026
:10077800a60207000080fa00000006000000fa0048
:100788000005200001002000a00207001642a80072
:1007980000000000b0108000640060000000e0006d
:1007a800fcff3a0000052000010020009702070026
:1007b8000080fa00000006000200fa00004f7800ee
:1007c80000000000c0108000610060000000e00030
:1007d800fcff3a001e00fb00901088000005200076
:1007e80001002000890207000080fa0000000600ce
:1007f8000200fa00000f78001e007800a0108800a0
:1008080017e2a8000080fa00000006000400fa00c1
:10081800000f780011079800c9ff070020ceb30029
:10082800e5ff0700006420000100200077020700b0
:1008380060c7b300e0ff070000642000010020004b
:100848007202070070c7b300dbff070000642000d6
:10085800010020006d0207001e0090000040780093
:10086800d5ff070000642000010020006702070090
:100878001e00780010407800cfff070000642000b9
:1008880001002000610207001e00e8001040780007
:10089800c9ff070000642000010020005b02070078
:1008a8001e80e80010407800c3ff070000642000a5
:1008b80001002000550207009e0078006380400078
:1008c80010407800bcff07000064200001002000f1
:1008d8004e020700a9ff07000080fa00000006008a
:1008e8000000fa0021e3a90021a3a9002143a800e0
:1008f800001980000080a1000090a1000019880064
:10090800001980000050a0000060a0000070a00046
:10091800001988002043a8004040200010198800d2
:1009280025e3a90021198000f00f2e0080806000c7
:1009380000f020000100700020198800f0c0b3000a
:1009480024e3b7003223ef002e23ef00002020001d
:10095800801988004119800000fe2f000080600087
:100968004019880028e3a90021e3a800000a200014
:1009780001002000250207000080fa0000000600a0
:100988000200fa00004f780021e3a900005023007c
:10099800c10020001d0207009e4078007fc0600053
:1009a8000080fb007f0060004219800001fe2f00dc
:1009b8008100610001007000401988000050230088
:1009c800c10020001102070021e3a8000080fa00fe
:1009d800000006000000fa002023a8000000000024
:1009e80000198000620060000000e000fcff320097
:1009f8002023a9000500370000000000001980002e
:100a0800610060000000e000fcff32000019800077
:100a1800620060000000e000f7ff3a000018800064
:100a28008000eb00e6fe07000080fa0000000600e8
:100a38000000fa00103a800000c0a00000d0a10019
:100a480000e0a100103a8800103a80000080a00061
:100a58000090a10000a0a100103a880042e7a90078
:100a680042c7a90042a7a80045e7a900203a80008c
:100a780000c0a10000d0a10000e0a100203a880039
:100a88004567a900203a80000080a1000090a100dd
:100a980000a0a100203a8800203a80000060a10050
:100aa8000070a100203a8800213a800000fe2f0043
:100ab80000806000203a8800313a800000e02f0072
:100ac80080806000f003200001007000303a880048
:100ad800413a800000fc2f00008060000020a00048
:100ae800403a88000080fa00000006000000fa0082
:100af800103a800000c0a00000d0a10000e0a100d2
:100b0800103a8800103a80000080a0000090a100f0
:100b180000a0a100103a880042e7a90042c7a90036
:100b280042a7a80045e7a900203a800000c0a1001c
:100b380000d0a10000e0a100203a88004567a90084
:100b4800203a80000080a1000090a10000a0a10030
:100b5800203a8800203a80000060a0000070a000c1
:100b6800203a8800213a800000fe2f0000806000b3
:100b78006000b300203a8800313a800000e02f007e
:100b8800808060009008200001007000303a8800e2
:100b9800413a800000fc2f00008060000020a00087
:100ba800403a88000080fa00000006000000fa00c1
:100bb80040108000610060000000e00062003a0020
:100bc80030808000e20f500019003200e20f500020
:100bd80005003e000000e0000a003200e10f50006e
:100be8000f00320061003700e40f5000300032007f
:100bf800e40f500017003900e50f50003d003200a7
:100c08005a0037000270ef002003200020108800ef
:100c180007e2a80010002000308088005300370049
:100c28000602a80020002000308088004f0037000e
:100c380030108000610060000000e00044003a00cd
:100c4800000e20001010880030002000308088003e
:100c5800460037004110800000002400008060003a
:100c68000000e0003c003a0041108000000028002d
:100c7800008060000000e0000a003a0002d0bf00d7
:100c88000080fb0001022100008040001040780035
:100c98000080fb0010108800400020003080880091
:100ca8003200370010002000308088002f00370005
:100cb8004110800000002400008060000000e00077
:100cc80027003a00411080000000280000806000e2
:100cd8000000e00004003a000642a800500020008e
:100ce80030808800210037003000200030808800e4
:100cf8001e00370030108000640060000000e00033
:100d080019003a0002d0bf000040e80002f0b70026
:100d180002d0bf000080fb000102210000804000db
:100d28009040780090c9b30080cf500003003a008b
:100d380060002000308088000c0037001000200080
:100d480030808800090037000000000007003700e5
:100d58000000000005003700000000000300370015
:100d68000000000001003700000000000080fa00c9
:100d7800000006000200fa00000f78009e007800cc
:100d8800803e200000017800110009008200d80090
:100d98008040780040012100014878009e007800da
:100da800803e200000017800110009008200d80070
:100db8008000fd00000f78009e00780040062000ab
:100dc80000017800110009008200d80080407800f6
:100dd80050012100014878006001210001c1b300e1
:100de800014878009e007800400620000001780045
:100df800110009008200d8008000fd00000f780073
:100e08009e007800a0002000000178001100090071
:100e18008200d800804078007001210001487800e5
:100e28009e007800a0002000000178001100090051
:100e38008200d8008000fd00000f78001e007800b6
:100e4800804078008001210001487800400121009d
:100e58000080880010c0b30008f0b7000080fa00d6
:100e6800000006000000fa0020808000e20f500019
:100e78001c003200e20f500005003e000000e000b8
:100e88000a003200e10f5000120032008c003700d7
:100e9800e40f500030003200e40f50001a0039000f
:100ea800e50f5000640032008500370008d0bf000d
:100eb8000004e000790032000270ef0010c0b300b7
:100ec80009f0b7000870ef001000200020808800ab
:100ed8007b0037000602a800200020002080880040
:100ee8007700370030108000610060000000e000eb
:100ef8006c003a00000e200010108800300020001e
:100f0800208088006e003700411080000000240017
:100f1800008060000000e00064003a00411080009a
:100f280000002800008060000000e00004003a0093
:100f38000222ef0040002000208088006000370077
:100f4800100020002080880000c429000100200033
:100f5800ae0007005a00370041108000000024004e
:100f6800008060000000e00052003a00411080005c
:100f780000002800008060000000e00025003a0022
:100f88000180800002d0bf000080fb00008040008c
:100f9800104078000080fb002139280000804000c4
:100fa800104078000080fb00101088000cd0bf00b3
:100fb8000004a2000004e0000300320002d0bf00d9
:100fc8000040e80002f0b7000cd0bf000004a20007
:100fd8000080fb00004078000cf0b7000180800022
:100fe80002d0bf000080fb000080400090407800e5
:100ff80090c9b30080cf500003003a005000200091
:10100800208088002e0037004000200020808800c3
:101018002b00370002d0bf000004e00003003a00b4
:101028003000200020808800250037004000200084
:101038002080880022003700411080000000240032
:10104800008060000000e0001c003a0041108000b1
:1010580000002800008060000000e00004003a0062
:101068000642a8000430ef000970ef0014003700b2
:1010780002d0bf000040e90002f0b7000cd0bf006a
:101088000004a2000080fb00004078000cf0b700cc
:101098004000200020808800090037000000000080
:1010a80007003700000000000500370000000000be
:1010b80003003700000000000100370000000000b6
:1010c8000080fa00000006003600f800809fbe008d
:1010d800829fbe00849fbe00869fbe003200f8003b
:1010e8003400f80010002000a00188000020200033
:1010f80090018800000000000000fa005080800085
:101108000000e8005080880009d0bf000004a20059
:101118000004e000020032005080800015ff070044
:101128000108a9000080fa003400f9003200f90033
:101138004f03be004f02be004f01be004f00be006d
:101148003600f900004006000000fa0067fe0700bc
:101158000870ef00000ea900040ea900005023003b
:10116800c100200029000700040ea800013a8000f1
:1011780000042000008060000000e0000100320050
:10118800040ea900204280000000a1000010a10068
:101198000020a000204288000a21ef000003280058
:1011a8009008880070922000700888000108a90043
:1011b8002108a8007dfe07002aff0700fdff370071
:020000040000fa
:1011c8000e10000016000000820000007c7900006c
:1011d8007971990001021000030499003879000020
:1011e800790099002181e5009900000000100000b5
:1011f8000c000000800000000c100000020000003d
:0c120800820000000100000026098000a8
:020000040000fa
:10121400f03fb1000180b10006003500ee03090083
:1012240000000000403fb1000180b100fbff3d0021
:101234001000b000203fb00002003500008009001b
:0812440000000000000006009c
:020000040000fa
:04124c00000000009e
:020000040000fa
:020000040005f5
:045fe000cdff0000f1
:020000040000fa
:020000040005f5
:045fe400ffff0000bb
:020000040000fa
:020000040005f5
:045fe8007fff000037
:020000040000fa
:020000040005f5
:045fec00bfff0000f3
:020000040000fa
:020000040005f5
:045ff000f9ff0000b5
:020000040000fa
:020000040005f5
:045ff400ffff0000ab
:00000001FF
