:020000040000fa
:080000000002040000000000f2
:020000040000fa
:04000800e002000012
:020000040000fa
:04000c00e00200000e
:020000040000fa
:04001000e00200000a
:020000040000fa
:04001400e002000006
:020000040000fa
:04001800e002000002
:020000040000fa
:04001c00e0020000fe
:020000040000fa
:04002000e0020000fa
:020000040000fa
:04002400e0020000f6
:020000040000fa
:04002800e0020000f2
:020000040000fa
:04002c00e0020000ee
:020000040000fa
:04003000e0020000ea
:020000040000fa
:04003400e0020000e6
:020000040000fa
:04003800e0020000e2
:020000040000fa
:04003c00e0020000de
:020000040000fa
:04004000e0020000da
:020000040000fa
:04004400e0020000d6
:020000040000fa
:04004800e0020000d2
:020000040000fa
:04004c00e0020000ce
:020000040000fa
:04005000e0020000ca
:020000040000fa
:04005400e0020000c6
:020000040000fa
:04005800e0020000c2
:020000040000fa
:04005c00e0020000be
:020000040000fa
:04006000e0020000ba
:020000040000fa
:04006400e0020000b6
:020000040000fa
:04006800e0020000b2
:020000040000fa
:04006c00e0020000ae
:020000040000fa
:04007000e0020000aa
:020000040000fa
:04007400e0020000a6
:020000040000fa
:04007800e0020000a2
:020000040000fa
:04007c00e00200009e
:020000040000fa
:04008000e00200009a
:020000040000fa
:04008400e002000096
:020000040000fa
:04008800e002000092
:020000040000fa
:04008c00e00200008e
:020000040000fa
:04009000e00200008a
:020000040000fa
:04009400e002000086
:020000040000fa
:04009800e002000082
:020000040000fa
:04009c00e00200007e
:020000040000fa
:0400a000e00200007a
:020000040000fa
:0400a400e002000076
:020000040000fa
:0400a800e002000072
:020000040000fa
:0400ac00e00200006e
:020000040000fa
:0400b000e00200006a
:020000040000fa
:0400b400e002000066
:020000040000fa
:0400b800e002000062
:020000040000fa
:0400bc00e00200005e
:020000040000fa
:0400c000e00200005a
:020000040000fa
:0400c400e002000056
:020000040000fa
:0400c800e002000052
:020000040000fa
:0400cc00e00200004e
:020000040000fa
:0400d000e00200004a
:020000040000fa
:0400d400e002000046
:020000040000fa
:0400d800e002000042
:020000040000fa
:0400dc00e00200003e
:020000040000fa
:0400e000e00200003a
:020000040000fa
:0400e400e002000036
:020000040000fa
:0400e800e002000032
:020000040000fa
:0400ec00e00200002e
:020000040000fa
:0400f000e00200002a
:020000040000fa
:0400f400e002000026
:020000040000fa
:0400f800e002000022
:020000040000fa
:0400fc00e00200001e
:020000040000fa
:04010000e002000019
:020000040000fa
:04010400e002000015
:020000040000fa
:04010800e002000011
:020000040000fa
:04010c00e00200000d
:020000040000fa
:04011000e002000009
:020000040000fa
:04011400e002000005
:020000040000fa
:04011800e002000001
:020000040000fa
:04011c00e0020000fd
:020000040000fa
:04012000e0020000f9
:020000040000fa
:04012400e0020000f5
:020000040000fa
:04012800e0020000f1
:020000040000fa
:04012c00e0020000ed
:020000040000fa
:04013000e0020000e9
:020000040000fa
:04013400e0020000e5
:020000040000fa
:04013800e0020000e1
:020000040000fa
:04013c00e0020000dd
:020000040000fa
:04014000e0020000d9
:020000040000fa
:04014400e0020000d5
:020000040000fa
:04014800e0020000d1
:020000040000fa
:04014c00e0020000cd
:020000040000fa
:04015000e0020000c9
:020000040000fa
:04015400e0020000c5
:020000040000fa
:04015800e0020000c1
:020000040000fa
:04015c00e0020000bd
:020000040000fa
:04016000e0020000b9
:020000040000fa
:04016400e0020000b5
:020000040000fa
:04016800e0020000b1
:020000040000fa
:04016c00e0020000ad
:020000040000fa
:04017000e0020000a9
:020000040000fa
:04017400e0020000a5
:020000040000fa
:04017800e0020000a1
:020000040000fa
:04017c00e00200009d
:020000040000fa
:04018000e002000099
:020000040000fa
:04018400e002000095
:020000040000fa
:04018800e002000091
:020000040000fa
:04018c00e00200008d
:020000040000fa
:04019000e002000089
:020000040000fa
:04019400e002000085
:020000040000fa
:04019800e002000081
:020000040000fa
:04019c00e00200007d
:020000040000fa
:0401a000e002000079
:020000040000fa
:0401a400e002000075
:020000040000fa
:0401a800e002000071
:020000040000fa
:0401ac00e00200006d
:020000040000fa
:0401b000e002000069
:020000040000fa
:0401b400e002000065
:020000040000fa
:0401b800e002000061
:020000040000fa
:0401bc00e00200005d
:020000040000fa
:0401c000e002000059
:020000040000fa
:0401c400e002000055
:020000040000fa
:0401c800e002000051
:020000040000fa
:0401cc00e00200004d
:020000040000fa
:0401d000e002000049
:020000040000fa
:0401d400e002000045
:020000040000fa
:0401d800e002000041
:020000040000fa
:0401dc00e00200003d
:020000040000fa
:0401e000e002000039
:020000040000fa
:0401e400e002000035
:020000040000fa
:0401e800e002000031
:020000040000fa
:0401ec00e00200002d
:020000040000fa
:0401f000e002000029
:020000040000fa
:0401f400e002000025
:020000040000fa
:0401f800e002000021
:020000040000fa
:0401fc00e00200001d
:020000040000fa
:04020000e002000018
:020000040000fa
:04020400e002000014
:020000040000fa
:04020800e002000010
:020000040000fa
:04020c00e00200000c
:020000040000fa
:04021000e002000008
:020000040000fa
:04021400e002000004
:020000040000fa
:04021800e002000000
:020000040000fa
:04021c00e0020000fc
:020000040000fa
:04022000e0020000f8
:020000040000fa
:04022400e0020000f4
:020000040000fa
:04022800e0020000f0
:020000040000fa
:04022c00e0020000ec
:020000040000fa
:04023000e0020000e8
:020000040000fa
:04023400e0020000e4
:020000040000fa
:04023800e0020000e0
:020000040000fa
:04023c00e0020000dc
:020000040000fa
:04024000e0020000d8
:020000040000fa
:04024400e0020000d4
:020000040000fa
:04024800e0020000d0
:020000040000fa
:04024c00e0020000cc
:020000040000fa
:04025000e0020000c8
:020000040000fa
:04025400e0020000c4
:020000040000fa
:04025800e0020000c0
:020000040000fa
:04025c00e0020000bc
:020000040000fa
:04026000e0020000b8
:020000040000fa
:04026400e0020000b4
:020000040000fa
:04026800e0020000b0
:020000040000fa
:04026c00e0020000ac
:020000040000fa
:04027000e0020000a8
:020000040000fa
:04027400e0020000a4
:020000040000fa
:04027800e0020000a0
:020000040000fa
:04027c00e00200009c
:020000040000fa
:04028000e002000098
:020000040000fa
:100400006f0621000eff27000e018800000000008b
:10041000000020000000e000020032000001200087
:10042000200288000c000700406d20000100200021
:100430000f000700000020000000e0000200320072
:100440000000020000000000ce05020000000000d5
:100450000040da000000fe00600020000000e00024
:1004600002003200002020009001880000000600f9
:10047000a1028800800078000000eb001a0037001d
:10048000e280400054a0b4009101ba00e280400034
:1004900054a0b4009102ba00e280400054a0b4001d
:1004a0000002eb00472bde00f507b200a601880032
:1004b000602ce10008003a000049eb000201e8006e
:1004c000020039003420ec0002f0a0008301e900b2
:1004d000f9ff3e00040037006128e100010032000e
:1004e0000082eb000b00070011c3ba001101ba0033
:1004f0000604e00003003a000200e000e0ff3a00da
:1005000000000600f607b200a6028800820078000c
:10051000f5ff370004d0a300e20f49001c003900aa
:10052000810278003549ba000201e8000200390072
:100530003420ec0002f0a0008301e9000f0032003b
:100540002549ba000201e800020039003420ec001d
:1005500002f0a0008301e900080032000400e0007e
:100560000600320015c9ba000201e8000200390095
:100570003420ec0002f0a0008301e9008180e80053
:1005800054a0b4000300e000e2ff3a0000000600bf
:100590009102ba00055978008301e900f7ff3200a3
:1005a000c82ade00055978008301e900f3ff320014
:1005b0000400e000f1ff320011d9ba00eeff37006d
:1005c0000040da000000fe006011b80000003700b3
:1005d000889fbe008a9fbe000082700004027100e6
:1005e00004827100260032000004be000200be003a
:1005f0006011b8006b092000950220000182cf0035
:100600000a0039000541b1000082cf00070039001f
:100610000541b1000982cf00040039000541b10055
:100620000882cf00010039000541b10005425200a7
:10063000120032000a003b008281710061016400f7
:100640008100d1000080d3008984d3000884d300c6
:100650008b05e8000442e800f7ff3a000700370086
:100660000804440089844c00000048008180480050
:100670008b05e9000442e900f9ff3a000300070096
:100680004f05be004f04be000000060081002000a0
:10069000618055000b003d000b00200061fe2f0023
:1006a0000100e1001d0034008281710061016400dd
:1006b0008904d1000884d3000000e800faff3a0062
:1006c00071002000610064000300700002006000ff
:1006d0000900320061044400e0844c000988a50050
:1006e000050032008b05e8006808e10002003a00ce
:1006f0008904d1000884d300f20f20000258e100e1
:1007000005003d00c75ddd00f907b2008980750076
:1007100008007800000006000bf827008b00780026
:0407200000000500d0
:020000040000fa
:0c072400100000000d00000004000000a8
:020000040000fa
:100730000000fa008025200001002000b20107001f
:100740001602a80000000000b010800061006000e8
:100750000000e000fcff3a0080252000010020009e
:10076000a90107000080fa00000006000000fa005e
:100770008025200001002000a30107001642a800e8
:1007800000000000b0108000640060000000e00085
:10079000fcff3a0080252000010020009a0107009c
:1007a0000080fa00000006000200fa00004f780006
:1007b00000000000c0108000610060000000e00048
:1007c000fcff3a001e00fb009010880080252000ee
:1007d000010020008c0107000080fa0000000600e4
:1007e0000200fa00000f78001e007800a0108800b8
:1007f00017e2a8000080fa00000006000400fa00da
:10080000000f780011079800c9ff070020ceb30041
:10081000e5ff070000ee2200010020007a0107003a
:1008200060c7b300e0ff070000ee220001002000d7
:100830007501070070c7b300dbff070000ee220060
:1008400001002000700107001e00900000407800a9
:10085000d5ff070000ee2200010020006a0107001a
:100860001e00780010407800cfff070000ee220045
:1008700001002000640107001e00e800104078001d
:10088000c9ff070000ee2200010020005e01070002
:100890001e80e80010407800c3ff070000ee220031
:1008a00001002000580107009e007800638040008e
:1008b00010407800bcff070000ee2200010020007d
:1008c00051010700a9ff07000080fa0000000600a0
:1008d0000000fa0021e3a90021a3a9002143a800f8
:1008e000001980000080a1000090a100001988007c
:1008f000001980000050a0000060a0000070a0005f
:10090000001988002043a8004040200010198800ea
:1009100025e3a90021198000f00f2e0080806000df
:1009200000f020000100700020198800f0c0b30022
:1009300024e3b7003223ef002e23ef000020200035
:10094000801988004119800000fe2f00008060009f
:100950004019880028e3a90021e3a800004b2000eb
:1009600001002000280107000080fa0000000600b6
:100970000200fa00004f780021e3a90000d8280007
:10098000b1052000200107009e4078007fc0600074
:100990000080fb007f0060004219800001fe2f00f4
:1009a00081006100010070004019880000d8280013
:1009b000b10520001401070021e3a8000080fa001f
:1009c000000006000000fa002023a800000000003c
:1009d00000198000620060000000e000fcff3200af
:1009e0002023a90005003700000000000019800046
:1009f000610060000000e000fcff32000019800090
:100a0000620060000000e000f7ff3a00001880007c
:100a10008000eb00ecfe07000080fa0000000600fa
:100a20000000fa00103a800000c0a00000d0a10031
:100a300000e0a100103a8800103a80000080a00079
:100a40000090a10000a0a100103a880042e7a90090
:100a500042c7a90042a7a80045e7a900203a8000a4
:100a600000c0a10000d0a10000e0a100203a880051
:100a70004567a900203a80000080a1000090a100f5
:100a800000a0a100203a8800203a80000060a10068
:100a90000070a100203a8800213a800000fe2f005b
:100aa00000806000203a8800313a800000e02f008a
:100ab00080806000f003200001007000303a880060
:100ac000413a800000fc2f00008060000020a00060
:100ad000403a88000080fa00000006000000fa009a
:100ae000103a800000c0a00000d0a10000e0a100ea
:100af000103a8800103a80000080a0000090a10009
:100b000000a0a100103a880042e7a90042c7a9004e
:100b100042a7a80045e7a900203a800000c0a10034
:100b200000d0a10000e0a100203a88004567a9009c
:100b3000203a80000080a1000090a10000a0a10048
:100b4000203a8800203a80000060a0000070a000d9
:100b5000203a8800213a800000fe2f0000806000cb
:100b60006000b300203a8800313a800000e02f0096
:100b7000808060009008200001007000303a8800fa
:100b8000413a800000fc2f00008060000020a0009f
:100b9000403a88000080fa00000006000600fa00d3
:100ba0009fff0700000ea900310ea9002002a90036
:100bb000001180000010a1000020a1000011880099
:100bc00020a2a9002062a90060182000401188001e
:100bd000101180000060a1000070a10010118800b9
:100be00021e2a8002136800000f82f0080806000fc
:100bf000700220000100700020368800330ea8002b
:100c000001003700000000000630ef000040eb005c
:100c1000004f78000430ef001e4078000004e00030
:100c2000340032002f00370020808000f00f500089
:100c30002c003c0030118000100798001e0090002e
:100c4000e20f5000120032001e009000ed0f500025
:100c50000f0032001e009000ea0f50000c0032001e
:100c60001e009000e30f5000090032003080800029
:100c70009e00900081407800220221000000410087
:100c800001487800308080000000e8003080880053
:100c90000830ef000c003700408080004180800069
:100ca0008100e8002202210081004100914078008b
:100cb00022032100000041000148780040808000ac
:100cc0000000e8004080880041808000a01c840073
:100cd000808f5000f0ff3500208080000000e80089
:100ce0002080880010118000610060000000e0009a
:100cf000cdff320020022100104078000004e00007
:100d000002003a000080fa00000006000000eb003c
:100d100020079800e10421002003210008000700bb
:100d2000ae00900000804000200798002e00900048
:100d30000000e000b3ff3400330ea900b2ff37001b
:100d40000400fa00000f7800110798000030ef004f
:100d50000e003700008080001e00400090407800a8
:100d6000008080001e0190000000410010407800cb
:100d700080cf5000020032000000eb000800370076
:100d8000008080000000e800008088000180800072
:100d9000a01c8400808f5000eeff35001000200062
:080da0000080fa0000000600cb
:020000040000fa
:100da8003e100000280000008200000030303000b3
:100db80030303000303030003030300030303000eb
:100dc8003038320030303300424538003233370093
:100dd8003238320030303300424538003233370081
:100de800320000000a1000003400000080000000fb
:100df800001000000a0000008000000020078000aa
:020000040000fa
:100e0800f03fb1000180b10006003500ee03090093
:100e180000000000403fb1000180b100fbff3d0031
:100e28001000b000203fb00002003500008009002b
:080e38000000000000000600ac
:020000040000fa
:040e400000000000ae
:020000040000fa
:020000040005f5
:045fe000cdff0000f1
:020000040000fa
:020000040005f5
:045fe400ffff0000bb
:020000040000fa
:020000040005f5
:045fe8007fff000037
:020000040000fa
:020000040005f5
:045fec00bfff0000f3
:020000040000fa
:020000040005f5
:045ff000f9ff0000b5
:020000040000fa
:020000040005f5
:045ff400ffff0000ab
:00000001FF
