:020000040000fa
:080000000002040000000000f2
:020000040000fa
:04000800e002000012
:020000040000fa
:04000c00e00200000e
:020000040000fa
:04001000e00200000a
:020000040000fa
:04001400e002000006
:020000040000fa
:04001800e002000002
:020000040000fa
:04001c00e0020000fe
:020000040000fa
:04002000e0020000fa
:020000040000fa
:04002400e0020000f6
:020000040000fa
:04002800e0020000f2
:020000040000fa
:04002c00e0020000ee
:020000040000fa
:04003000e0020000ea
:020000040000fa
:04003400e0020000e6
:020000040000fa
:04003800e0020000e2
:020000040000fa
:04003c00e0020000de
:020000040000fa
:04004000e0020000da
:020000040000fa
:04004400e0020000d6
:020000040000fa
:04004800e0020000d2
:020000040000fa
:04004c00e0020000ce
:020000040000fa
:04005000e0020000ca
:020000040000fa
:04005400e0020000c6
:020000040000fa
:04005800e0020000c2
:020000040000fa
:04005c00e0020000be
:020000040000fa
:04006000e0020000ba
:020000040000fa
:04006400e0020000b6
:020000040000fa
:04006800e0020000b2
:020000040000fa
:04006c00e0020000ae
:020000040000fa
:04007000e0020000aa
:020000040000fa
:04007400e0020000a6
:020000040000fa
:04007800e0020000a2
:020000040000fa
:04007c00e00200009e
:020000040000fa
:04008000e00200009a
:020000040000fa
:04008400e002000096
:020000040000fa
:04008800e002000092
:020000040000fa
:04008c00e00200008e
:020000040000fa
:04009000e00200008a
:020000040000fa
:04009400e002000086
:020000040000fa
:04009800e002000082
:020000040000fa
:04009c00e00200007e
:020000040000fa
:0400a000e00200007a
:020000040000fa
:0400a400e002000076
:020000040000fa
:0400a800e002000072
:020000040000fa
:0400ac00e00200006e
:020000040000fa
:0400b000e00200006a
:020000040000fa
:0400b400e002000066
:020000040000fa
:0400b800e002000062
:020000040000fa
:0400bc00e00200005e
:020000040000fa
:0400c000e00200005a
:020000040000fa
:0400c400e002000056
:020000040000fa
:0400c800e002000052
:020000040000fa
:0400cc00e00200004e
:020000040000fa
:0400d000e00200004a
:020000040000fa
:0400d400e002000046
:020000040000fa
:0400d800e002000042
:020000040000fa
:0400dc00e00200003e
:020000040000fa
:0400e000e00200003a
:020000040000fa
:0400e400e002000036
:020000040000fa
:0400e800e002000032
:020000040000fa
:0400ec00e00200002e
:020000040000fa
:0400f000e00200002a
:020000040000fa
:0400f400e002000026
:020000040000fa
:0400f800e002000022
:020000040000fa
:0400fc00e00200001e
:020000040000fa
:04010000e002000019
:020000040000fa
:04010400e002000015
:020000040000fa
:04010800e002000011
:020000040000fa
:04010c00e00200000d
:020000040000fa
:04011000e002000009
:020000040000fa
:04011400e002000005
:020000040000fa
:04011800e002000001
:020000040000fa
:04011c00e0020000fd
:020000040000fa
:04012000e0020000f9
:020000040000fa
:04012400e0020000f5
:020000040000fa
:04012800e0020000f1
:020000040000fa
:04012c00e0020000ed
:020000040000fa
:04013000e0020000e9
:020000040000fa
:04013400e0020000e5
:020000040000fa
:04013800e0020000e1
:020000040000fa
:04013c00e0020000dd
:020000040000fa
:04014000e0020000d9
:020000040000fa
:04014400e0020000d5
:020000040000fa
:04014800e0020000d1
:020000040000fa
:04014c00e0020000cd
:020000040000fa
:04015000e0020000c9
:020000040000fa
:04015400e0020000c5
:020000040000fa
:04015800e0020000c1
:020000040000fa
:04015c00e0020000bd
:020000040000fa
:04016000e0020000b9
:020000040000fa
:04016400e0020000b5
:020000040000fa
:04016800e0020000b1
:020000040000fa
:04016c00e0020000ad
:020000040000fa
:04017000e0020000a9
:020000040000fa
:04017400e0020000a5
:020000040000fa
:04017800e0020000a1
:020000040000fa
:04017c00e00200009d
:020000040000fa
:04018000e002000099
:020000040000fa
:04018400e002000095
:020000040000fa
:04018800e002000091
:020000040000fa
:04018c00e00200008d
:020000040000fa
:04019000e002000089
:020000040000fa
:04019400e002000085
:020000040000fa
:04019800e002000081
:020000040000fa
:04019c00e00200007d
:020000040000fa
:0401a000e002000079
:020000040000fa
:0401a400e002000075
:020000040000fa
:0401a800e002000071
:020000040000fa
:0401ac00e00200006d
:020000040000fa
:0401b000e002000069
:020000040000fa
:0401b400e002000065
:020000040000fa
:0401b800e002000061
:020000040000fa
:0401bc00e00200005d
:020000040000fa
:0401c000e002000059
:020000040000fa
:0401c400e002000055
:020000040000fa
:0401c800e002000051
:020000040000fa
:0401cc00e00200004d
:020000040000fa
:0401d000e002000049
:020000040000fa
:0401d400e002000045
:020000040000fa
:0401d800e002000041
:020000040000fa
:0401dc00e00200003d
:020000040000fa
:0401e000e002000039
:020000040000fa
:0401e400e002000035
:020000040000fa
:0401e800e002000031
:020000040000fa
:0401ec00e00200002d
:020000040000fa
:0401f000e002000029
:020000040000fa
:0401f400e002000025
:020000040000fa
:0401f800e002000021
:020000040000fa
:0401fc00e00200001d
:020000040000fa
:04020000e002000018
:020000040000fa
:04020400e002000014
:020000040000fa
:04020800e002000010
:020000040000fa
:04020c00e00200000c
:020000040000fa
:04021000e002000008
:020000040000fa
:04021400e002000004
:020000040000fa
:04021800e002000000
:020000040000fa
:04021c00e0020000fc
:020000040000fa
:04022000e0020000f8
:020000040000fa
:04022400e0020000f4
:020000040000fa
:04022800e0020000f0
:020000040000fa
:04022c00e0020000ec
:020000040000fa
:04023000e0020000e8
:020000040000fa
:04023400e0020000e4
:020000040000fa
:04023800e0020000e0
:020000040000fa
:04023c00e0020000dc
:020000040000fa
:04024000e0020000d8
:020000040000fa
:04024400e0020000d4
:020000040000fa
:04024800e0020000d0
:020000040000fa
:04024c00e0020000cc
:020000040000fa
:04025000e0020000c8
:020000040000fa
:04025400e0020000c4
:020000040000fa
:04025800e0020000c0
:020000040000fa
:04025c00e0020000bc
:020000040000fa
:04026000e0020000b8
:020000040000fa
:04026400e0020000b4
:020000040000fa
:04026800e0020000b0
:020000040000fa
:04026c00e0020000ac
:020000040000fa
:04027000e0020000a8
:020000040000fa
:04027400e0020000a4
:020000040000fa
:04027800e0020000a0
:020000040000fa
:04027c00e00200009c
:020000040000fa
:04028000e002000098
:020000040000fa
:10040000af0021000eff28000e0188000000000050
:10041000000020000000e000020032000001200087
:10042000200288000c000700206b20000100200043
:100430000f000700000020000000e0000200320072
:10044000000002000000000084060200000000001e
:100450000040da000000fe00200020000000e00064
:100460000200320010002000900188000000060009
:10047000a1028800800078000000eb001a0037001d
:10048000e280400054a0b4009101ba00e280400034
:1004900054a0b4009102ba00e280400054a0b4001d
:1004a0000002eb00472bde00f507b200a601880032
:1004b000602ce10008003a000049eb000201e8006e
:1004c000020039003420ec0002f0a0008301e900b2
:1004d000f9ff3e00040037006128e100010032000e
:1004e0000082eb000b00070011c3ba001101ba0033
:1004f0000604e00003003a000200e000e0ff3a00da
:1005000000000600f607b200a6028800820078000c
:10051000f5ff370004d0a300e20f49001c003900aa
:10052000810278003549ba000201e8000200390072
:100530003420ec0002f0a0008301e9000f0032003b
:100540002549ba000201e800020039003420ec001d
:1005500002f0a0008301e900080032000400e0007e
:100560000600320015c9ba000201e8000200390095
:100570003420ec0002f0a0008301e9008180e80053
:1005800054a0b4000300e000e2ff3a0000000600bf
:100590009102ba00055978008301e900f7ff3200a3
:1005a000c82ade00055978008301e900f3ff320014
:1005b0000400e000f1ff320011d9ba00eeff37006d
:1005c0000040da000000fe006011b80000003700b3
:1005d000889fbe008a9fbe000082700004027100e6
:1005e00004827100260032000004be000200be003a
:1005f0006011b8006b092000950220000182cf0035
:100600000a0039000541b1000082cf00070039001f
:100610000541b1000982cf00040039000541b10055
:100620000882cf00010039000541b10005425200a7
:10063000120032000a003b008281710061016400f7
:100640008100d1000080d3008984d3000884d300c6
:100650008b05e8000442e800f7ff3a000700370086
:100660000804440089844c00000048008180480050
:100670008b05e9000442e900f9ff3a000300070096
:100680004f05be004f04be000000060081002000a0
:10069000618055000b003d000b00200061fe2f0023
:1006a0000100e1001d0034008281710061016400dd
:1006b0008904d1000884d3000000e800faff3a0062
:1006c00071002000610064000300700002006000ff
:1006d0000900320061044400e0844c000988a50050
:1006e000050032008b05e8006808e10002003a00ce
:1006f0008904d1000884d300f20f20000258e100e1
:1007000005003d00c75ddd00f907b2008980750076
:1007100008007800000006000bf827008b00780026
:0407200000000500d0
:020000040000fa
:100724000000fa0000052000010020007e010700ff
:100734001602a80000000000b010800061006000f4
:100744000000e000fcff3a0000052000010020004a
:10075400750107000080fa00000006000000fa009e
:1007640000052000010020006f0107001642a800c8
:1007740000000000b0108000640060000000e00091
:10078400fcff3a000005200001002000660107007c
:100794000080fa00000006000200fa00004f780012
:1007a40000000000c0108000610060000000e00054
:1007b400fcff3a001e00fb0090108800000520009a
:1007c40001002000580107000080fa000000060024
:1007d4000200fa00000f78001e007800a0108800c4
:1007e40017e2a8000080fa00000006000400fa00e6
:1007f400000f780011079800c9ff070020ceb3004e
:10080400e5ff070000642000010020004601070006
:1008140060c7b300e0ff070000642000010020006f
:100824004101070070c7b300dbff0700006420002c
:10083400010020003c0107001e00900000407800e9
:10084400d5ff0700006420000100200036010700e6
:100854001e00780010407800cfff070000642000dd
:1008640001002000300107001e00e800104078005d
:10087400c9ff070000642000010020002a010700ce
:100884001e80e80010407800c3ff070000642000c9
:1008940001002000240107009e00780063804000ce
:1008a40010407800bcff0700006420000100200015
:1008b4001d010700a9ff07000080fa0000000600e0
:1008c4000000fa0021e3a90021a3a9002143a80004
:1008d400001980000080a1000090a1000019880088
:1008e400001980000050a0000060a0000070a0006b
:1008f400001988002043a8004040200010198800f7
:1009040025e3a90021198000f00f2e0080806000eb
:1009140000f020000100700020198800f0c0b3002e
:1009240024e3b7003223ef002e23ef000020200041
:10093400801988004119800000fe2f0000806000ab
:100944004019880028e3a90021e3a800000a200038
:1009540001002000f40007000080fa0000000600f7
:100964000200fa00004f780021e3a90000502300a0
:10097400c1002000ec0007009e4078007fc06000aa
:100984000080fb007f0060004219800001fe2f0000
:1009940081006100010070004019880000502300ac
:1009a400c1002000e000070021e3a8000080fa0055
:1009b400000006000000fa002023a8000000000048
:1009c40000198000620060000000e000fcff3200bb
:1009d4002023a90005003700000000000019800052
:1009e400610060000000e000fcff3200001980009c
:1009f400620060000000e000f7ff3a000018800089
:100a04008000eb00effe07000080fa000000060003
:100a14000000fa00103a800000c0a00000d0a1003d
:100a240000e0a100103a8800103a80000080a00085
:100a34000090a10000a0a100103a880042e7a9009c
:100a440042c7a90042a7a80045e7a900203a8000b0
:100a540000c0a10000d0a10000e0a100203a88005d
:100a64004567a900203a80000080a1000090a10001
:100a740000a0a100203a8800203a80000060a10074
:100a84000070a100203a8800213a800000fe2f0067
:100a940000806000203a8800313a800000e02f0096
:100aa40080806000f003200001007000303a88006c
:100ab400413a800000fc2f00008060000020a0006c
:100ac400403a88000080fa00000006000000fa00a6
:100ad400103a800000c0a00000d0a10000e0a100f6
:100ae400103a8800103a80000080a0000090a10015
:100af40000a0a100103a880042e7a90042c7a9005b
:100b040042a7a80045e7a900203a800000c0a10040
:100b140000d0a10000e0a100203a88004567a900a8
:100b2400203a80000080a0000090a10000a0a10055
:100b3400203a8800203a80000060a1000070a100e3
:100b4400203a8800213a800000fe2f0000806000d7
:100b5400203a8800313a800000e02f0000806000d5
:100b6400e000b300303a8800413a800000fc2f00d6
:100b7400008060000020a000403a88000080fa0055
:100b8400000006000000fa0010808000e20f500010
:100b940018003200e20f500005003e000000e000a3
:100ba4000a003200e10f50000e00320053003700fb
:100bb400e40f500031003200e40f50001b003900f4
:100bc400e50f5000360032004c003700b012200010
:100bd400a010880017e2a8001000200010808800f0
:100be400460037001602a80020002000108088006c
:100bf40042003700b0108000610060000000e00097
:100c040037003a0000000000c0108000610060005e
:100c14000000e000fcff3a00200e20009010880045
:100c2400300020001080880034003700c11080009c
:100c340000002800008060000000e0002a003a0064
:100c4400208080001040780000f0b7000000000011
:100c5400c0108000610060000000e000fcff3a006a
:100c640020808000104078000080fb0090108800f5
:100c7400400020001080880020003700c110800050
:100c840000002800008060000000e00018003a0026
:100c94001642a8005000200010808800170037007a
:100ca400b0108000640060000000e00012003a0010
:100cb400208080000000e8002080880020808000e0
:100cc400104078000004e00002003a0060002000b8
:100cd4001080880010002000108088000700370072
:100ce400000000000500370000000000030037008a
:100cf4000000000001003700000000000080fa003e
:100d0400000006000200fa0070ff07000020210026
:100d1400a10720000400070040002000000f780015
:080d240098ff0700feff3700f5
:020000040000fa
:100d2c00f03fb1000180b10006003500ee03090070
:100d3c0000000000403fb1000180b100fbff3d000e
:100d4c001000b000203fb000020035000080090008
:080d5c00000000000000060089
:020000040000fa
:100d640006100000040000008200000076773800be
:100d740000000000041000000200000082000000d7
:100d840006100000001000000400000080000000b5
:040d9400cc06800009
:020000040000fa
:040d98000000000057
:020000040000fa
:020000040005f5
:045fe000cdff0000f1
:020000040000fa
:020000040005f5
:045fe400ffff0000bb
:020000040000fa
:020000040005f5
:045fe800ffff0000b7
:020000040000fa
:020000040005f5
:045fec00bfff0000f3
:020000040000fa
:020000040005f5
:045ff000f9ff0000b5
:020000040000fa
:020000040005f5
:045ff400ffff0000ab
:00000001FF
