:020000040000fa
:080000000002040000000000f2
:020000040000fa
:04000800b40300003d
:020000040000fa
:04000c00b403000039
:020000040000fa
:04001000b403000035
:020000040000fa
:04001400b403000031
:020000040000fa
:04001800b40300002d
:020000040000fa
:04001c00b403000029
:020000040000fa
:04002000b403000025
:020000040000fa
:04002400b403000021
:020000040000fa
:04002800b40300001d
:020000040000fa
:04002c00b403000019
:020000040000fa
:04003000b403000015
:020000040000fa
:04003400ac1000000c
:020000040000fa
:04003800b40300000d
:020000040000fa
:04003c00b403000009
:020000040000fa
:04004000b403000005
:020000040000fa
:04004400b403000001
:020000040000fa
:04004800b4030000fd
:020000040000fa
:04004c00b4030000f9
:020000040000fa
:04005000e0020000ca
:020000040000fa
:040054003414000060
:020000040000fa
:04005800b4030000ed
:020000040000fa
:04005c00b4030000e9
:020000040000fa
:04006000b4030000e5
:020000040000fa
:04006400b4030000e1
:020000040000fa
:04006800b4030000dd
:020000040000fa
:04006c00b4030000d9
:020000040000fa
:04007000b4030000d5
:020000040000fa
:04007400b4030000d1
:020000040000fa
:04007800b4030000cd
:020000040000fa
:04007c00b4030000c9
:020000040000fa
:04008000b4030000c5
:020000040000fa
:04008400b4030000c1
:020000040000fa
:04008800b4030000bd
:020000040000fa
:04008c00b4030000b9
:020000040000fa
:04009000b4030000b5
:020000040000fa
:04009400b4030000b1
:020000040000fa
:04009800b4030000ad
:020000040000fa
:04009c00b4030000a9
:020000040000fa
:0400a000b4030000a5
:020000040000fa
:0400a400b4030000a1
:020000040000fa
:0400a800b40300009d
:020000040000fa
:0400ac00b403000099
:020000040000fa
:0400b000b403000095
:020000040000fa
:0400b400b403000091
:020000040000fa
:0400b800b40300008d
:020000040000fa
:0400bc00b403000089
:020000040000fa
:0400c000b403000085
:020000040000fa
:0400c400b403000081
:020000040000fa
:0400c800b40300007d
:020000040000fa
:0400cc00b403000079
:020000040000fa
:0400d000b403000075
:020000040000fa
:0400d400b403000071
:020000040000fa
:0400d800b40300006d
:020000040000fa
:0400dc00b403000069
:020000040000fa
:0400e000b403000065
:020000040000fa
:0400e400b403000061
:020000040000fa
:0400e800b40300005d
:020000040000fa
:0400ec00b403000059
:020000040000fa
:0400f000b403000055
:020000040000fa
:0400f400b403000051
:020000040000fa
:0400f800b40300004d
:020000040000fa
:0400fc00b403000049
:020000040000fa
:04010000b403000044
:020000040000fa
:04010400b403000040
:020000040000fa
:04010800b40300003c
:020000040000fa
:04010c00b403000038
:020000040000fa
:04011000b403000034
:020000040000fa
:04011400b403000030
:020000040000fa
:04011800b40300002c
:020000040000fa
:04011c00b403000028
:020000040000fa
:04012000b403000024
:020000040000fa
:04012400b403000020
:020000040000fa
:04012800b40300001c
:020000040000fa
:04012c00b403000018
:020000040000fa
:04013000b403000014
:020000040000fa
:04013400b403000010
:020000040000fa
:04013800b40300000c
:020000040000fa
:04013c00b403000008
:020000040000fa
:04014000b403000004
:020000040000fa
:04014400b403000000
:020000040000fa
:04014800b4030000fc
:020000040000fa
:04014c00b4030000f8
:020000040000fa
:04015000b4030000f4
:020000040000fa
:04015400b4030000f0
:020000040000fa
:04015800b4030000ec
:020000040000fa
:04015c00b4030000e8
:020000040000fa
:04016000b4030000e4
:020000040000fa
:04016400b4030000e0
:020000040000fa
:04016800b4030000dc
:020000040000fa
:04016c00b4030000d8
:020000040000fa
:04017000b4030000d4
:020000040000fa
:04017400b4030000d0
:020000040000fa
:04017800b4030000cc
:020000040000fa
:04017c00b4030000c8
:020000040000fa
:04018000b4030000c4
:020000040000fa
:04018400b4030000c0
:020000040000fa
:04018800b4030000bc
:020000040000fa
:04018c00b4030000b8
:020000040000fa
:04019000b4030000b4
:020000040000fa
:04019400b4030000b0
:020000040000fa
:04019800b4030000ac
:020000040000fa
:04019c00b4030000a8
:020000040000fa
:0401a000b4030000a4
:020000040000fa
:0401a400b4030000a0
:020000040000fa
:0401a800b40300009c
:020000040000fa
:0401ac00b403000098
:020000040000fa
:0401b000b403000094
:020000040000fa
:0401b400b403000090
:020000040000fa
:0401b800b40300008c
:020000040000fa
:0401bc00b403000088
:020000040000fa
:0401c000b403000084
:020000040000fa
:0401c400b403000080
:020000040000fa
:0401c800b40300007c
:020000040000fa
:0401cc00b403000078
:020000040000fa
:0401d000b403000074
:020000040000fa
:0401d400b403000070
:020000040000fa
:0401d800b40300006c
:020000040000fa
:0401dc00b403000068
:020000040000fa
:0401e000b403000064
:020000040000fa
:0401e400b403000060
:020000040000fa
:0401e800b40300005c
:020000040000fa
:0401ec00b403000058
:020000040000fa
:0401f000b403000054
:020000040000fa
:0401f400b403000050
:020000040000fa
:0401f800b40300004c
:020000040000fa
:0401fc00b403000048
:020000040000fa
:04020000b403000043
:020000040000fa
:04020400b40300003f
:020000040000fa
:04020800b40300003b
:020000040000fa
:04020c00b403000037
:020000040000fa
:04021000b403000033
:020000040000fa
:04021400b40300002f
:020000040000fa
:04021800b40300002b
:020000040000fa
:04021c00b403000027
:020000040000fa
:04022000b403000023
:020000040000fa
:04022400b40300001f
:020000040000fa
:04022800b40300001b
:020000040000fa
:04022c00b403000017
:020000040000fa
:04023000b403000013
:020000040000fa
:04023400b40300000f
:020000040000fa
:04023800b40300000b
:020000040000fa
:04023c00b403000007
:020000040000fa
:04024000b403000003
:020000040000fa
:04024400b4030000ff
:020000040000fa
:04024800b4030000fb
:020000040000fa
:04024c00b4030000f7
:020000040000fa
:04025000b4030000f3
:020000040000fa
:04025400b4030000ef
:020000040000fa
:04025800b4030000eb
:020000040000fa
:04025c00b4030000e7
:020000040000fa
:04026000b4030000e3
:020000040000fa
:04026400b4030000df
:020000040000fa
:04026800b4030000db
:020000040000fa
:04026c00b4030000d7
:020000040000fa
:04027000b4030000d3
:020000040000fa
:04027400b4030000cf
:020000040000fa
:04027800b4030000cb
:020000040000fa
:04027c00b4030000c7
:020000040000fa
:04028000b4030000c3
:020000040000fa
:10040000afea21000eff27000e0188000000000067
:10041000000020000000e000020032000001200087
:10042000200288000c000700e047200001002000a7
:100430000f000700000020000000e0000200320072
:1004400000000200000000008c1302000000000009
:100450000040da000000fe00800120000000e00003
:1004600002003200002020009001880000000600f9
:10047000a1028800800078000000eb001a0037001d
:10048000e280400054a0b4009101ba00e280400034
:1004900054a0b4009102ba00e280400054a0b4001d
:1004a0000002eb00472bde00f507b200a601880032
:1004b000602ce10008003a000049eb000201e8006e
:1004c000020039003420ec0002f0a0008301e900b2
:1004d000f9ff3e00040037006128e100010032000e
:1004e0000082eb000b00070011c3ba001101ba0033
:1004f0000604e00003003a000200e000e0ff3a00da
:1005000000000600f607b200a6028800820078000c
:10051000f5ff370004d0a300e20f49001c003900aa
:10052000810278003549ba000201e8000200390072
:100530003420ec0002f0a0008301e9000f0032003b
:100540002549ba000201e800020039003420ec001d
:1005500002f0a0008301e900080032000400e0007e
:100560000600320015c9ba000201e8000200390095
:100570003420ec0002f0a0008301e9008180e80053
:1005800054a0b4000300e000e2ff3a0000000600bf
:100590009102ba00055978008301e900f7ff3200a3
:1005a000c82ade00055978008301e900f3ff320014
:1005b0000400e000f1ff320011d9ba00eeff37006d
:1005c000809fbe00829fbe003200f8003400f80019
:1005d00010002000a0018800002020009001880069
:1005e000000000000000fa0021d0bf008080fb0066
:1005f0004212800002417800a3d82100818041008e
:10060000824878000040e80021f0b70000000000b8
:100610001111800000102000008060000000e00048
:10062000fbff320021d0bf000080fb000000e9008a
:10063000a1d8210000804000104078000080fb001d
:1006400020118800110221009140780040c6b300bb
:1006500080cf500001003a002170ef000128a9006e
:100660000080fa003400f9003200f9004f01be00aa
:100670004f00be00004006000000fa000128a9005b
:100680002128a900001280000020a0000030a00056
:100690000040a100001288004382a9004362a90023
:1006a0004342a90042a2a8004322a9004302a80095
:1006b00042c2a90041e2a8000128a9002128a800ff
:1006c0000080fa00000006000200fa00004f7800e7
:1006d0000000000011118000001020000080600068
:1006e0000000e000fbff32007004200020118800b1
:1006f0000000000000128000620060000000e000c6
:10070000fcff3a001e80fb00401288000000000041
:100710001111800000102000008060000000e00047
:10072000fbff320080042000201188000080fa00c6
:10073000000006000000fa0060c8b300e2ff0700f6
:100740000080fa00000006000000fa0070c8b30044
:10075000ddff07000080fa00000006000000fa003c
:100760000080fa00000006000040da000000fe00f1
:100770006011b80000003700889fbe008a9fbe004d
:1007800000827000040271000482710026003200b1
:100790000004be000200be006011b8006b0920001a
:1007a000950220000182cf000a0039000541b10006
:1007b0000082cf00070039000541b1000982cf0057
:1007c000040039000541b1000882cf000100390062
:1007d0000541b10005425200120032000a003b0000
:1007e00082817100610164008100d1000080d3002a
:1007f0008984d3000884d3008b05e8000442e80014
:10080000f7ff3a00070037000804440089844c00d1
:1008100000004800818048008b05e9000442e9009f
:10082000f9ff3a00030007004f05be004f04be0069
:100830000000060081002000618055000b003d0093
:100840000b00200061fe2f000100e1001d003400bc
:1008500082817100610164008904d1000884d300a1
:100860000000e800faff3a00710020006100640017
:1008700003007000020060000900320061044400bf
:10088000e0844c000988a500050032008b05e800d3
:100890006808e10002003a008904d1000884d3000e
:1008a000f20f20000258e10005003d00c75ddd00a9
:1008b000f907b20089807500080078000000060082
:0c08c0000bf827008b00780000000500fa
:020000040000fa
:1008cc003f0600005b4f0000666d00007d070000d6
:1008dc007f6f0000777c0000395e000079710000aa
:1008ec0000020000100000000d00000004000000d9
:020000040000fa
:1008fc00941e000016000000820000007c790000ad
:10090c007971990001020100030499003879000003
:10091c00790099002181ef0099000000001000007f
:10092c0010000000800000002c10000002000000ed
:10093c008200000001000000481e0000340000008e
:10094c008200000030303000303030003030300069
:10095c00303030003030300030383200303033003e
:10096c0042453800323337003230300030303000fe
:10097c00303030003030300030383200303033001e
:10098c004245380032333700320000007c1e000034
:10099c001800000080000000101000001000000083
:1009ac0080000000301000004a0d000082000000a2
:1009bc0042265c00267c26005e265c00266a260009
:1009cc005e267700269026009626c40026b82600c0
:1009dc00da26d10026d02600b8269d00269e2600b9
:1009ec00a2268e00268d26008a266f0026652600fc
:1009fc004d265300265626006f267e0026a926007b
:100a0c00c526e00026d22600ea26f10026ad2600f7
:100a1c00c0267a00264b2600652664002662260036
:100a2c0095268c0026ac2600b0269100269a26002e
:100a3c009526850026a526009e26c60026b02600f3
:100a4c00b3269a002653260064261100261c260085
:100a5c0035264c00266d2600bb26b60026f826004f
:100a6c000527ed00260a2700f026cb0026d9260004
:100a7c00aa268d00267b260064263100262c260013
:100a8c002c263600264c26006f267700269526004d
:100a9c00b026b30026df2600f526df0026f0260060
:100aac00cd26cd0026c6260098267f00267b260064
:100abc0034264900264b260029265300265a2600a8
:100acc004f26850026992600ab26c20026c026009c
:100adc00cd26ca0026c82600cb26d00026a4260088
:100aec00972685002672260068264b002645260090
:100afc005b265e0026592600802679002686260075
:100b0c00aa26a30026ca2600d626bd0026c026008b
:100b1c00c12696002694260099266f00267326007f
:100b2c00692640002645260060265e0026492600e0
:100b3c008526730026a62600a9269c0026b726002b
:100b4c00be269f0026be2600c626800026a82600ac
:100b5c007f265d0026722600652659002665260034
:100b6c0062265400266f260079269300268a2600da
:100b7c009f26a70026942600ba26930026a12600bd
:100b8c00b226840026922600912661002665260056
:100b9c0074265c00268526006826580026972600b9
:100bac008e26830026ac26009626a500269a2600c3
:100bbc009f26ab00269726008b269900268a2600b6
:100bcc006d266500267e26006c2663002695260081
:100bdc0071268900269526005b26a300269f2600f9
:100bec008426d800267d26009026c0002686260066
:100bfc00a326a200265f26007c268600265126000e
:100c0c007926720026782600812676002682260018
:100c1c009b269400268f2600a0268900269c260061
:100c2c00af268600268f2600a7266b00268e260070
:100c3c0082265e00268626007a2654002688260008
:100c4c0090265e0026a826007b26760026af26007e
:100c5c008b26780026a126008926840026ad260046
:100c6c0069268a00267e260053267a0026692600ed
:100c7c004f268400267b26005726a400268a2600b1
:100c8c007026ba00268126008126ac00266b260031
:100c9c008f269d00267426008c268a00266126004d
:100cac006f2689002663260087269700267126006a
:100cbc008b26b400266026008b2691002678260011
:100ccc00b4267f00264a2600ab265e00265b260053
:100cdc00aa265900268226009f266100267d260022
:100cec00a6267200269b2600ae26700026b3260090
:100cfc0097266400269d260080265c0026942600fc
:100d0c008e26590026a42600682663002684260019
:100d1c00622665002684260067266e0026a3260020
:100d2c0074267d0026a926007426980026ab260082
:100d3c006f269a00269026006a26860026782600c2
:100d4c004d265b002678260078269200267b26000e
:100d5c0074269a00267e26008826a7002694260054
:100d6c0092269400268d26009626a500267726002e
:100d7c00a2268000267b260074267600266a260092
:100d8c008c2674002668260082266f0026722600a8
:100d9c00a6268700269526008e2676002698260005
:100dac0096267d002689260084266700269226003a
:100dbc007d265e00268b26007b265c00268c26007a
:100dcc008726740026a426008a26880026ae2600d4
:100ddc007226940026ac260072266200268a260013
:100dec0076268500268926007d266f00268726001c
:100dfc00632657002693260085266f00269a260028
:100e0c0079268700269a260082268c0026ab26009f
:100e1c005026a400269026006326ad0026732600db
:100e2c0068268200267b26007926a60026742600da
:100e3c007926a200267526008f269900267a260090
:100e4c008a269e002699260083268a00266826007c
:100e5c0071268700265b2600652688002659260009
:100e6c0092267d002678260090269c002678260067
:100e7c00d126800026b52600c526b500269f260063
:100e8c00b726680026a4260087266e002684260036
:100e9c004f2658002669260047264c00266426005b
:100eac00512664002676260071267b0026962600a5
:100ebc009626940026bb26009026990026bf260075
:100ecc0083268a002689260067268100267726003d
:100edc004b266800265c260059267900266d2600d4
:100eec008a269e0026902600a826a100269c260075
:100efc009f269000269326009b266f00268e2600a8
:100f0c0087267400267d26005e265b00266a260056
:100f1c00692675002664260084266700267d260037
:100f2c008526790026a126008c267d0026a0260089
:100f3c007b26a100268e260090269e002685260064
:100f4c005f269400266f260085267200265f2600f9
:100f5c0077266600268b26007a269700268c26009c
:100f6c009126b00026a32600a526b60026942600be
:100f7c00a226ae002674260093268700265526004e
:100f8c0082266100266f26007f266e0026742600be
:100f9c009226740026902600a426800026a1260006
:100fac009a268700269926008b267f00268126000c
:100fbc0086268800268126007c267500268326003e
:100fcc0090268600269826008f26910026ac2600b7
:100fdc00af26a30026c32600a826af0026ab26000a
:100fec00a626a80026bf2600c7260800270d270026
:100ffc003a274e00274f270032274b002754270053
:10100c00b227b40027722700c527e1002757280014
:10101c004527900027cd260037274e0027ee2600c7
:10102c008527f80026dd27005f270100276a2600a8
:10103c008d250e0026cb240076259e0023e224006d
:10104c004723010025c123007325b900240926007c
:10105c006c25d200275226009027210026c227009b
:10106c00d125b000272125003827eb0024002700cc
:10107c00b1253d0027f225002a271b0026b02600ab
:10108c00ff258c0027bb2600c028df002711280075
:10109c00cc27a700271b2700a127820026ce2600dd
:1010ac006a252a0026d52400ef24d00024892400a8
:1010bc002925aa00235d2500042381002547230050
:1010cc001826260024f12500a2248400250e2500d4
:1010dc00f625d10026ca26007c27020027d227003d
:1010ec00d826d30027f026000c283d00274b2800db
:1010fc008b27470028692700f2271200279b27001f
:10110c00b326dc00263726002e269f0025a42500ba
:10111c00d9240f0025ee240068255100257d2500db
:10112c007625d10025de250043269e0026022700c9
:10113c0040275f002751270035274a002701270049
:10114c000027030027242700d426c900265d26008b
:10115c001b26de0025db2500e825050026fc2500e6
:10116c0040263700265826006f26a00026c32600ee
:10117c00ed26fa00261727001227f20026dc26009f
:10118c00802670002665260062264e00263c26002e
:10119c000526f90025f525001126340026652600c4
:1011ac009426ad0026a52600c226b70026cf260021
:1011bc00f326d40026b72600d326bf0026cd260062
:1011cc002227a50027702800a129ef00293b2b001e
:1011dc00c52b5f002ca72b00b32ac9002aff2900be
:1011ec00792a030028ef27008d25f40026302600ed
:1011fc000928400026b22700dd25850027df2400c2
:10120c00d52955002b6e2e00002dd3002c382a002a
:10121c00e82adc00295128002624f70021691f0048
:10122c006e1f15001f652000b91d8e002050220076
:10123c00e625500027532a00a02b4b002c6c2c00c9
:10124c008c2b84002cfe2b00962c0d002a61260082
:10125c005923f800221e23008922c0001f301f00d2
:10126c00171f1f0022f220009c235400246b270020
:10127c008e251e00284126009f28620026982a00f1
:10128c009d28be002afa2800f428d0002625250027
:10129c006d24990026e625002a267e002481240050
:1012ac00da232c0024442500fa259e0026e328008e
:1012bc001d2a200029f22800cd27c40027842600ef
:1012cc00ce28c70027632800b127e3002559250045
:1012dc00b4237a0023f92300e722bf002364230000
:1012ec009a23a800238424001f24d600242d240034
:1012fc00db254900273829001f29ea0028e52900a9
:10130c00712995002815270032255500249f2500aa
:10131c000726600025c424005224e40025b22600d0
:10132c0011268f00251a2600dd26ba00279a2700e1
:10133c00d327020029032a008f281b0029c8260066
:10134c00e526ec0024642400cd21fa0021222100a2
:10135c00cf22020023ca24004d250d0027022800ad
:10136c007128d40029722a00792afb002ad7290077
:10137c00e32a19002ac829000829c10028a128003d
:10138c00d0264e0023e2220078212f0022f32200e7
:10139c006d24f30025fa26007327480028972700b0
:1013ac00db271d0027ec26009527c5002771280098
:1013bc000c28f500278426000726d00023dd210009
:1013cc00a620c80020fd2100852365002477240079
:1013dc00ac254b0026be2600b7268f00261328000e
:1013ec0018276e00284726004728230026a8260029
:1013fc001326ec00262d26003d27660028272a0000
:10140c00262a4d002ae12a00112aa7002945270087
:10141c007b269b0024d42500da23850025ca2400d2
:10142c006425260026492500cd264800250c2800d9
:10143c009a26190027a024004624de00234a240003
:10144c002325dd0026a22700be2797002741280070
:10145c002527600027202700682734002652250006
:10146c00ab256e0025de260024275d0027362800dc
:10147c0039277f00288626006d27f900247925005e
:10148c0003251800255326005c27d00028122800bd
:10149c00e927d70028e12700d928a90026d1260062
:1014ac005a243100249d20005b21f40020b123003c
:1014bc00e6238100255d24008425120026ba28002d
:1014cc007e279200294a2800b129e400280b2a0023
:1014dc00a128b400286227004228f10026312800f8
:1014ec007526b70027312600fe26430026812600ec
:1014fc00ad261c0026012700a925f3002571250027
:10150c00e727f10026dd28008327be00289c250054
:10151c00d2267600235024000923760023ca230008
:10152c0018244000248625009725800026082700d3
:10153c00d7265800275726009b26f50024a5250002
:10154c009b249a00252a25004b276e0026ab2800e9
:10155c005827110029f827001328290027ed260009
:10156c006c26bc00269a25004725280025cb230095
:10157c00b124450024f72400a025d20026282700fa
:10158c00a72783002711270035272700271f2900ad
:10159c00ca286d00298128009f28be002626270016
:1015ac00d0253d00252a23004a235900225a230026
:1015bc00bf231a0025d525002228e70028f42a008d
:1015cc00122a40002b872b00322a2e002a3a2800a0
:1015dc0043293300248f2600d121a900258f220016
:1015ec007a26a20023802700c2251f0027b72500da
:1015fc002726fe002571260069255e002639250068
:10160c005525e100259124006526770025b5280095
:10161c0047267b00281a2600dc27c70027bb26009c
:10162c0014265c00246324008624dc0022b42300ee
:10163c004b24e30024d9260043265e0028c9280049
:10164c00922acb002a332a00a029240029752900cc
:10165c0024285d0028f124009a268200236e2500a0
:10166c00aa22d600239e2200b324c00024642500a5
:10167c00db26f500275e2a00c02a50002bd92a0051
:10168c00a22bae002abc2900fd260800251d230034
:10169c004e223100226421005723dd00224e25000a
:1016ac0092233d00265f2600e727b800283f29003b
:1016bc002a29c200295b280088281800283d270009
:1016cc008e27110026042600f025cf00257025005a
:1016dc000d25e70023dc24004124df0024e4240052
:1016ec00e1249900242224001b24300024522400dd
:1016fc00a2253a0025342600ea25910027a42600cd
:10170c000829fc0026b32900ee26b30029a42800e2
:10171c00c32917002c1e2b00152dc00028c1290031
:10172c00f1267c00274525000225830022b32200e8
:10173c00c621290022c92300f523570026122600b2
:10174c00f3270800275e2900e2274d002a312800e4
:10175c0002293500276a2600f425b400243a240017
:10176c007c23ac0023df2300e0235f00267d2500d3
:10177c009029fb0026f62900692725002bf327006a
:10178c00eb2a590026fe2800d624f80026792300df
:10179c0099246800228a23002b231b00268e240008
:1017ac003c29400025c029008e2580002a582500a0
:1017bc009d2ab70024d12900b2233000286d2200c5
:1017cc00ab27770021892500eb20c000234523009f
:1017dc002a246800256b2500c6273a0028b029006a
:1017ec002429310029cf29004b2907002a6327001f
:1017fc00fd29c70026ed2900fd268400264924007a
:10180c00732469002424240067230e0024be2300c3
:10181c00ac251c0025922500be25ee0026052900ce
:10182c00a0277e002aa82600602b480028c32b0086
:10183c00fd2987002a922a002b27ff0027dc240091
:10184c004d25770023a423003f22c000216e2100e8
:10185c00ea21b200236423007025d90025be27009d
:10186c00c8286100285429000329e80029be290052
:10187c00802a610028ed2a007a25ae002778230003
:10188c008024eb0021b922001920260022b8200068
:10189c00b923730022e026006f25a800296c2700cd
:1018ac00412a810027662a00b22871002a5028009c
:1018bc00aa28b000277227006a279a002561260003
:1018cc00e125ac0025402600962466002544250021
:1018dc00ce25bf0026cf2600f52620002831270074
:1018ec0054286900278a2700c428c000253b2900fa
:1018fc0098231a0029bd230067260900254c2300d4
:10190c006a25030022c124001123230025ec2400a6
:10191c005926c20026662700c927ce0027f92700c2
:10192c004e28e80028502800d4298a002763290073
:10193c00e625ff002806250037284a0024842600c7
:10194c009d248000255c2400cb24ae00241a2500a5
:10195c005825cf002527260038266100262526008d
:10196c001e27ec0026cb2700eb26250027b72500e9
:10197c006026b400248926000925d7002788250075
:10198c003a285e0026b928005126d3002659260095
:10199c0064260e00279f27005027c100267c2600b6
:1019ac00e3255b00266b250082267e0025fc2600a5
:1019bc00f725de00268725003b26fc0024bf2500ea
:1019cc005b251f00260726004d26fc00251a260045
:1019dc002b26640026ca26009626c400264526001f
:1019ec00b426b500262e27000027140027a12600b8
:1019fc00d326fc00262227003227e200269526005b
:101a0c006a26680026932600922664002634260057
:101a1c000e262d00265d260089266600264c260003
:101a2c002e268e0026d92600de26c100267326001f
:101a3c005e26940026b82600ca26c5002658260025
:101a4c004f265a00266d2600bc26a400266a2600c6
:101a5c003b26440026872600482626002609260019
:101a6c00ef254c00265126004926170026ea2500b2
:101a7c00cc25dc0025c62500f925160026d7250027
:101a8c0020261a00260726009a26340026b926009e
:101a9c008326d80026b526004227e20026422700de
:101aac00c4263f00270727000c27ef0026de260060
:101abc009f26f800268926002327e30026d026003f
:101acc007c263a00261b26001226610026372600ab
:101adc00a6263800269a260044266f0026c6260025
:101aec002d26500027712600d9262b00265d2600b6
:101afc0064269c0026e026000727e20026a7260085
:101b0c008526dd00264b260070276200260e270056
:101b1c004726520026d42500d525240026f325007f
:101b2c00cf263d0026eb2600af26ef00251627001a
:101b3c00bf24450027ea23001627340024ea270097
:101b4c0029252100285d250048272c0025c02600ca
:101b5c00aa26af00261b28006125d900286d240079
:101b6c003f29500024092900ee1d00005a000000f6
:101b7c00820000007e000f001001000013a2000084
:101b8c004060f40098fffe0000000000107e000092
:101b9c001f1001000013a20000406000f498ff0029
:101bac00fe0000007e0010001001000013a20000d7
:101bbc004060f40098fffe0000007e0000731000ef
:101bcc0001001300a200400060f49800fffe00002a
:101bdc00007e00000f1001000013a2000040600006
:101bec00f498ff00fe000000030d00007a1d0000b9
:101bfc0074000000800000002e10000002000000a5
:101c0c008200000038000000201000000c000000d2
:081c1c00800000002417800085
:020000040000fa
:101c24000200fa00000f78009e007800803e200039
:101c340000017800110009008200d800804078007b
:101c4400a0e92100014878009e007800803e200031
:101c540000017800110009008200d8008000fd0016
:101c6400000f78009e0078004006200000017800f4
:101c7400110009008200d80080407800b0e92100fa
:101c840001487800c0e9210011c1b300014878007f
:101c94009e00780040062000000178001100090031
:101ca4008200d8008000fd00000f78009e007800bc
:101cb400a000200000017800110009008200d80073
:101cc40080407800d0e92100014878009e00780027
:101cd400a000200000017800110009008200d80053
:101ce4008000fd00000f78001e007800804078001e
:101cf400e0e9210001487800a0e921000080880083
:101d040010c0b30006f0b7000080fa00000006001f
:101d14000000fa0040108000610060000000e00054
:101d24006b003a0050808000e30f50002200320024
:101d3400e30f500005003e00e10f50001100320097
:101d4400e10f500013003e0007003700e50f50007c
:101d540041003200e50f50002e003900e60f50001c
:101d640052003200630037000270ef00401f200071
:101d74002010880007e2a80010002000508088008e
:101d84005c0037000602a800200020005080880074
:101d94005800370030108000610060000000e0004f
:101da4004d003a00000e2000101088003000200082
:101db400508088004f00370041108000000024004c
:101dc400008060000000e00045003a0041108000ff
:101dd40000002800008060000000e0000a003a00d3
:101de40002d0bf000080fb0061ea210000804000b7
:101df400104078000080fb00101088004000200094
:101e0400508088003b00370010002000508088007c
:101e1400380037004110800000002400008060007a
:101e24000000e00030003a0041108000000028006b
:101e3400008060000000e00004003a000642a800b0
:101e440050002000508088002a0037003000200015
:101e54005080880027003700301080006400600044
:101e64000000e00022003a0002d0bf000040e80079
:101e740002f0b70002d0bf000080fb0061ea21003d
:101e8400008040009040780090c9b30080cf50009b
:101e940003003a00600020005080880015003700dd
:101ea40010002000508088001200370005d0bf00c9
:101eb4000004a2000004e0000e00320010c0b300d1
:101ec40005f0b7000000eb0055ff070009003700dc
:101ed4000000000007003700000000000500370084
:101ee400000000000300370000000000010037007c
:101ef400000000000080fa00000006000000fa0064
:101f040040808000e20f50001c003200e20f5000bd
:101f140005003e000000e0000a003200e10f50001e
:101f24001200320089003700e40f50002d00320007
:101f3400e40f50001a003900e50f50006100320030
:101f44008200370006d0bf000004e00076003200b3
:101f54000270ef0010c0b30007f0b7000670ef0086
:101f64001000200040808800780037000602a80096
:101f7400200020004080880074003700301080006a
:101f8400610060000000e00069003a00000e2000db
:101f94001010880030002000408088006b0037005b
:101fa4004110800000002400008060000000e00078
:101fb40061003a00411080000000280000806000a9
:101fc4000000e00004003a000222ef00400020007c
:101fd400408088005d0037001000200040808800a9
:101fe4005a00370041108000000024000080600087
:101ff4000000e00052003a00411080000000280078
:10200400008060000000e00025003a0001808000ac
:1020140002d0bf000080fb00008040001040780028
:102024000080fb00614628000080400010407800da
:102034000080fb00101088002cd0bf000004a20018
:102044000004e0000300320002d0bf000040e800ba
:1020540002f0b7002cd0bf000004a2000080fb00f7
:10206400004078002cf0b7000180800002d0bf004f
:102074000080fb00008040009040780090c9b300cd
:1020840080cf500003003a005000200040808800b8
:102094002e00370040002000408088002b003700cd
:1020a40002d0bf000004e00003003a00300020002a
:1020b40040808800250037004000200040808800d0
:1020c40022003700411080000000240000806000de
:1020d4000000e0001c003a004110800000002800cd
:1020e400008060000000e00004003a000642a800fe
:1020f4000830ef000770ef001400370002d0bf0073
:102104000040e90002f0b7002cd0bf000004a20098
:102114000080fb00004078002cf0b7004000200055
:1021240040808800090037000000000007003700e5
:102134000000000005003700000000000300370025
:102144000000000001003700000000000080fa00d9
:10215400000006003600f800809fbe00829fbe008b
:10216400849fbe00869fbe003200f8003400f80051
:1021740010002000a00188000020200090018800a9
:10218400000000000000fa0004d0bf000004a20018
:102194000004e0000e0032001171800000002200f3
:1021a400008060000000e0000700320010c0b300af
:1021b40023f0b70010c0b30004f0b7000021ef0013
:1021c4000e30ef002e003700107180002c00370015
:1021d40004d0bf000004e0002900320054f90700d5
:1021e40058f907001171800000002200008060008f
:1021f4000000e0001a00320071808000e0702200cc
:10220400808f500004003c00708080000000e800d3
:1022140070808800010037000e30ef0007d0bf0047
:102224000004a2000004e00004003200708080007a
:102234007bfe07000c30ef00030037006080800055
:102244000000e8006080880060808000e50f500096
:102254000b00340050002000408088000800370044
:102264001171800000002200008060000000e00086
:1022740003003a002370ef000470ef000021ef0028
:102284000068a9000080fa003400f9003200f90067
:102294004f03be004f02be004f01be004f00be0000
:1022a4003600f900004006000000fa0080252000f6
:1022b40001002000d50207001602a800000000005b
:1022c400b0108000610060000000e000fcff3a00f4
:1022d4008025200001002000cc0207000080fa00c5
:1022e400000006000000fa00802520000100200004
:1022f400c60207001642a80000000000b0108000cb
:10230400640060000000e000fcff3a00802520002b
:1023140001002000bd0207000080fa000000060052
:102324000200fa00004f780000000000c010800096
:10233400610060000000e000fcff3a001e00fb00aa
:10234400901088008025200001002000af020700c3
:102354000080fa00000006000200fa00000f780076
:102364001e007800a010880017e2a8000080fa0080
:10237400000006000400fa00000f7800110798001e
:10238400c9ff070020ceb300e5ff070000ee2200de
:10239400010020009d02070060c7b300e0ff0700b2
:1023a40000ee2200010020009802070070c7b3006d
:1023b400dbff070000ee220001002000930207006b
:1023c4001e00900000407800d5ff070000ee2200b8
:1023d400010020008d0207001e00780010407800e4
:1023e400cfff070000ee2200010020008702070053
:1023f4001e00e80010407800c9ff070000ee22002c
:1024040001002000810207001e80e80010407800cf
:10241400c3ff070000ee2200010020007b0207003a
:102424009e0078006380400010407800bcff0700e5
:1024340000ee22000100200074020700a9ff07003b
:102444000080fa00000006000000fa0021e3a90061
:1024540021a3a9002143a800001980000080a10045
:102464000090a10000198800001980000050a0000d
:102474000060a0000070a000001988002043a8009c
:10248400404020001019880025e3a900211980008c
:10249400f00f2e008080600000f02000010070002a
:1024a40020198800f0c0b30024e3b7003223ef0002
:1024b4002e23ef000020200080198800411980009d
:1024c40000fe2f00008060004019880028e3a90066
:1024d40021e3a800004b2000010020004b0207006c
:1024e4000080fa00000006000200fa00004f7800a5
:1024f40021e3a90000d82800b10520004302070009
:102504009e4078007fc060000080fb007f00600078
:102514004219800001fe2f0081006100010070005b
:102524004019880000d82800b105200037020700b0
:1025340021e3a8000080fa00000006000000fa0071
:102544002023a80000000000001980006200600041
:102554000000e000fcff32002023a9000500370042
:102564000000000000198000610060000000e0002d
:10257400fcff320000198000620060000000e000ef
:10258400f7ff3a00001880008000eb0077f807009e
:102594000080fa00000006000000fa00103a8000f3
:1025a40000c0a00000d0a10000e0a100103a880003
:1025b400103a80000080a0000090a10000a0a100bb
:1025c400103a880042e7a90042c7a90042a7a80020
:1025d40045e7a900203a800000c0a10000d0a10076
:1025e40000e0a100203a88004567a900203a800055
:1025f4000080a1000090a10000a0a100203a880062
:10260400203a80000060a1000070a100203a8800f8
:10261400213a800000fe2f0000806000203a8800ec
:10262400313a800000e02f0080806000f003200039
:1026340001007000303a8800413a800000fc2f000d
:10264400008060000020a000403a88000080fa006a
:10265400000006000000fa00103a800000c0a0004c
:1026640000d0a10000e0a100103a8800103a8000d8
:102674000080a0000090a10000a0a100103a8800f2
:1026840042e7a90042c7a90042a7a80045e7a9005c
:10269400203a800000c0a10000d0a10000e0a10009
:1026a400203a88004567a900203a80000080a100f4
:1026b4000090a10000a0a100203a8800203a8000e8
:1026c4000060a0000070a000203a8800213a800039
:1026d40000fe2f00008060006000b300203a8800f4
:1026e400313a800000e02f008080600090082000d4
:1026f40001007000303a8800413a800000fc2f004d
:10270400008060000020a000403a88000080fa00a9
:10271400000006000000fa009fff070000482100a7
:10272400f13e2000b9010700000ea900310ea900f6
:102734000f8ea90021aea8002002a900001180007c
:102744000010a1000020a1000011880020a2a9000f
:102754002062a900601820004011880021e2a8002e
:102764002168a8002342a800101180000060a10085
:102774000070a100101188002136800000f82f009d
:102784008080600070022000010070002036880004
:102794005134800000fc2f00008060000000a00085
:1027a400503488003002a900801180000010a1007c
:1027b4000020a1008011880030a2a9003062a90085
:1027c40060182000c011880031e2a8003342a8003c
:1027d400901180000060a1000070a1009011880099
:1027e4003136800000f82f0080806000c002200095
:1027f400010070003036880041348000f00f2c0056
:1028040080806000003020000100700040348800a7
:10281400330ea80000702800313920007b01070026
:102824000042800000c0a10000d0a10000e0a00090
:10283400004288000021ef000003280020088800df
:1028440080932000100888000068a9002068a80070
:1028540088f707002efd0700a8fd070022000700e7
:10286400fcff3700809fbe003200f8003400f800ff
:1028740010002000a00188000020200090018800a2
:10288400000000000000fa0000072000201188006a
:102894000b00370030118000004078001ef0b700b4
:1028a4000000000011118000001020000080600072
:1028b4000000e000fbff3200000720002011880028
:1028c40010118000610060000000e000f1ff3a0098
:1028d4000168a9000080fa003400f9003200f90010
:1028e4004f00be00004006000000fa002081800076
:1028f400e20f50002e003200e20f500005003e00af
:102904000000e0000a003200e10f50001100320024
:102914003c013700e40f5000b1003200e40f5000d6
:102924006b003900e50f50001b0132003501370000
:1029340023d0bf000004e0002d0132002630ef0058
:102944002a70ef002370ef0010002000208188001f
:102954002c013700000000009111800000102000bd
:10296400008060000000e000fbff32003081800046
:10297400e1de210000804000104078000080fb0070
:10298400a0118800308180000000e80030818800b8
:1029940030818000f30f500017013a002a70ef00d5
:1029a40020002000208188002630ef001501370028
:1029b40000000000911180000010200000806000e1
:1029c4000000e000fbff320030818000f00f500077
:1029d40011003c0030818000e20f500007003400f9
:1029e4003081800011e02100008040009040780098
:1029f4002ad0bf0000c040002af0b7003081800018
:102a040011e0210000804000104078000080fb00ad
:102a1400a01188002a00370030818000f10f500097
:102a240006003a002ad0bf000040e8002af0b700b0
:102a340010002000a01188002100370030818000a0
:102a4400f10f500014003400318180001002200086
:102a5400808f500010003c003081800072005000d4
:102a6400a1d7210000804000904078002ad0bf0008
:102a740000c040002af0b70030818000720050008e
:102a8400a1d7210000804000104078000080fb00a6
:102a9400a01188000a0037002ad0bf000080fb0084
:102aa400f10f200000805000a011880030002000a9
:102ab400208188002a70ef002630ef00d100370013
:102ac400308180000000e80030818800cd003700ac
:102ad40000000000911180000010200000806000c0
:102ae4000000e000fbff320030818000f00f500056
:102af40011003c0030818000e20f500007003400d8
:102b04003081800021e12100008040009040780065
:102b14002ad0bf0000c040002af0b70030818000f6
:102b240021e1210000804000104078000080fb007b
:102b3400a01188002600370030818000f10f50007a
:102b440006003a002ad0bf0000c0e8002af0b7000f
:102b540020002000a01188001d0037003081800073
:102b6400f20f500010003a0030818000f200500053
:102b7400e002210000804000904078002ad0bf008d
:102b840000c040002af0b70030818000f2005000fd
:102b9400e002210000804000104078000080fb002b
:102ba400a01188000a0037002ad0bf000080fb0073
:102bb400f10f200000805000a01188004000200088
:102bc400208188002a70ef002630ef008d00370046
:102bd400308180000000e8003081880089003700df
:102be40000000000911180000010200000806000af
:102bf4000000e000fbff320030818000f00f500045
:102c040011003c0030818000e20f500007003400c6
:102c14003081800031e22100008040009040780043
:102c24002ad0bf0000c040002af0b70030818000e5
:102c340031e2210000804000104078000080fb0059
:102c4400a01188005000370030818000f10f50003f
:102c540006003a002ad0bf00634040002af0b700c3
:102c640030002000a0118800470037003081800028
:102c7400f10f5000310034003181800050072000f2
:102c8400808f50002d003c002102210091407800eb
:102c940021d0bf0080cf500005003900210221005f
:102ca4009140780021d0bf0080cf50001900360039
:102cb40022d0bf000080fb00a1d82100008040008a
:102cc400904078002ad0bf0000c040002af0b7002e
:102cd40022d0bf008080fb00a2d8210081004100e7
:102ce400914078008180fb00a11188000040e80039
:102cf40022f0b700210221009140780040c6b300c1
:102d040080cf500001003a002270ef000000000064
:102d14001d00370023d0bf000004a2000004e0001f
:102d2400020032003422ef001700370030818000a7
:102d34000000e90030818800130037002ad0bf006a
:102d44000080fb00f10f200000805000a0118800db
:102d540023d0bf000004e000050032004000200042
:102d6400208188002a70ef002630ef00250037000c
:102d740050002000208188002a70ef002630ef00e8
:102d84002830ef001f003700308180000000e80089
:102d9400308188001b003700000000009111800082
:102da40000102000008060000000e000fbff320003
:102db4003081800041e32100008040001040780011
:102dc4000080fb00a0118800308180000000e80032
:102dd4003081880030818000f30f500008003a00f1
:102de4002a70ef002430ef002630ef000500370092
:102df400000000000300370000000000010037005d
:0c2e0400000000000080fa000000060042
:020000040000fa
:102e1000f03fb1000180b10006003500ee0309006b
:102e200000000000403fb1000180b100fbff3d0009
:102e30001000b000203fb000020035000080090003
:082e4000000000000000060084
:020000040000fa
:042e48000000000086
:020000040000fa
:020000040005f5
:045fe000cdff0000f1
:020000040000fa
:020000040005f5
:045fe400ffff0000bb
:020000040000fa
:020000040005f5
:045fe8007fff000037
:020000040000fa
:020000040005f5
:045fec00bfff0000f3
:020000040000fa
:020000040005f5
:045ff000f9ff0000b5
:020000040000fa
:020000040005f5
:045ff400ffff0000ab
:00000001FF
