:020000040000fa
:080000000002040000000000f2
:020000040000fa
:04000800e002000012
:020000040000fa
:04000c00e00200000e
:020000040000fa
:04001000e00200000a
:020000040000fa
:04001400e002000006
:020000040000fa
:04001800e002000002
:020000040000fa
:04001c00e0020000fe
:020000040000fa
:04002000e0020000fa
:020000040000fa
:04002400e0020000f6
:020000040000fa
:04002800e0020000f2
:020000040000fa
:04002c00e0020000ee
:020000040000fa
:04003000e0020000ea
:020000040000fa
:040034006808000058
:020000040000fa
:04003800e0020000e2
:020000040000fa
:04003c00e0020000de
:020000040000fa
:04004000e0020000da
:020000040000fa
:04004400e0020000d6
:020000040000fa
:04004800e0020000d2
:020000040000fa
:04004c00e0020000ce
:020000040000fa
:04005000e0020000ca
:020000040000fa
:04005400720900002d
:020000040000fa
:04005800e0020000c2
:020000040000fa
:04005c00e0020000be
:020000040000fa
:04006000e0020000ba
:020000040000fa
:04006400e0020000b6
:020000040000fa
:04006800e0020000b2
:020000040000fa
:04006c00e0020000ae
:020000040000fa
:04007000e0020000aa
:020000040000fa
:04007400e0020000a6
:020000040000fa
:04007800e0020000a2
:020000040000fa
:04007c00e00200009e
:020000040000fa
:04008000e00200009a
:020000040000fa
:04008400e002000096
:020000040000fa
:04008800e002000092
:020000040000fa
:04008c00e00200008e
:020000040000fa
:04009000e00200008a
:020000040000fa
:04009400e002000086
:020000040000fa
:04009800e002000082
:020000040000fa
:04009c00e00200007e
:020000040000fa
:0400a000e00200007a
:020000040000fa
:0400a400e002000076
:020000040000fa
:0400a800e002000072
:020000040000fa
:0400ac00e00200006e
:020000040000fa
:0400b000e00200006a
:020000040000fa
:0400b400e002000066
:020000040000fa
:0400b800e002000062
:020000040000fa
:0400bc00e00200005e
:020000040000fa
:0400c000e00200005a
:020000040000fa
:0400c400e002000056
:020000040000fa
:0400c800e002000052
:020000040000fa
:0400cc00e00200004e
:020000040000fa
:0400d000e00200004a
:020000040000fa
:0400d400e002000046
:020000040000fa
:0400d800e002000042
:020000040000fa
:0400dc00e00200003e
:020000040000fa
:0400e000e00200003a
:020000040000fa
:0400e400e002000036
:020000040000fa
:0400e800e002000032
:020000040000fa
:0400ec00e00200002e
:020000040000fa
:0400f000e00200002a
:020000040000fa
:0400f400e002000026
:020000040000fa
:0400f800e002000022
:020000040000fa
:0400fc00e00200001e
:020000040000fa
:04010000e002000019
:020000040000fa
:04010400e002000015
:020000040000fa
:04010800e002000011
:020000040000fa
:04010c00e00200000d
:020000040000fa
:04011000e002000009
:020000040000fa
:04011400e002000005
:020000040000fa
:04011800e002000001
:020000040000fa
:04011c00e0020000fd
:020000040000fa
:04012000e0020000f9
:020000040000fa
:04012400e0020000f5
:020000040000fa
:04012800e0020000f1
:020000040000fa
:04012c00e0020000ed
:020000040000fa
:04013000e0020000e9
:020000040000fa
:04013400e0020000e5
:020000040000fa
:04013800e0020000e1
:020000040000fa
:04013c00e0020000dd
:020000040000fa
:04014000e0020000d9
:020000040000fa
:04014400e0020000d5
:020000040000fa
:04014800e0020000d1
:020000040000fa
:04014c00e0020000cd
:020000040000fa
:04015000e0020000c9
:020000040000fa
:04015400e0020000c5
:020000040000fa
:04015800e0020000c1
:020000040000fa
:04015c00e0020000bd
:020000040000fa
:04016000e0020000b9
:020000040000fa
:04016400e0020000b5
:020000040000fa
:04016800e0020000b1
:020000040000fa
:04016c00e0020000ad
:020000040000fa
:04017000e0020000a9
:020000040000fa
:04017400e0020000a5
:020000040000fa
:04017800e0020000a1
:020000040000fa
:04017c00e00200009d
:020000040000fa
:04018000e002000099
:020000040000fa
:04018400e002000095
:020000040000fa
:04018800e002000091
:020000040000fa
:04018c00e00200008d
:020000040000fa
:04019000e002000089
:020000040000fa
:04019400e002000085
:020000040000fa
:04019800e002000081
:020000040000fa
:04019c00e00200007d
:020000040000fa
:0401a000e002000079
:020000040000fa
:0401a400e002000075
:020000040000fa
:0401a800e002000071
:020000040000fa
:0401ac00e00200006d
:020000040000fa
:0401b000e002000069
:020000040000fa
:0401b400e002000065
:020000040000fa
:0401b800e002000061
:020000040000fa
:0401bc00e00200005d
:020000040000fa
:0401c000e002000059
:020000040000fa
:0401c400e002000055
:020000040000fa
:0401c800e002000051
:020000040000fa
:0401cc00e00200004d
:020000040000fa
:0401d000e002000049
:020000040000fa
:0401d400e002000045
:020000040000fa
:0401d800e002000041
:020000040000fa
:0401dc00e00200003d
:020000040000fa
:0401e000e002000039
:020000040000fa
:0401e400e002000035
:020000040000fa
:0401e800e002000031
:020000040000fa
:0401ec00e00200002d
:020000040000fa
:0401f000e002000029
:020000040000fa
:0401f400e002000025
:020000040000fa
:0401f800e002000021
:020000040000fa
:0401fc00e00200001d
:020000040000fa
:04020000e002000018
:020000040000fa
:04020400e002000014
:020000040000fa
:04020800e002000010
:020000040000fa
:04020c00e00200000c
:020000040000fa
:04021000e002000008
:020000040000fa
:04021400e002000004
:020000040000fa
:04021800e002000000
:020000040000fa
:04021c00e0020000fc
:020000040000fa
:04022000e0020000f8
:020000040000fa
:04022400e0020000f4
:020000040000fa
:04022800e0020000f0
:020000040000fa
:04022c00e0020000ec
:020000040000fa
:04023000e0020000e8
:020000040000fa
:04023400e0020000e4
:020000040000fa
:04023800e0020000e0
:020000040000fa
:04023c00e0020000dc
:020000040000fa
:04024000e0020000d8
:020000040000fa
:04024400e0020000d4
:020000040000fa
:04024800e0020000d0
:020000040000fa
:04024c00e0020000cc
:020000040000fa
:04025000e0020000c8
:020000040000fa
:04025400e0020000c4
:020000040000fa
:04025800e0020000c0
:020000040000fa
:04025c00e0020000bc
:020000040000fa
:04026000e0020000b8
:020000040000fa
:04026400e0020000b4
:020000040000fa
:04026800e0020000b0
:020000040000fa
:04026c00e0020000ac
:020000040000fa
:04027000e0020000a8
:020000040000fa
:04027400e0020000a4
:020000040000fa
:04027800e0020000a0
:020000040000fa
:04027c00e00200009c
:020000040000fa
:04028000e002000098
:020000040000fa
:100400006f0921000eff27000e0188000000000088
:10041000000020000000e000020032000001200087
:10042000200288000c000700409d200001002000f1
:100430000f000700000020000000e0000200320072
:100440000000020000000000080902000000000097
:100450000040da000000fe00800120000000e00003
:1004600002003200002020009001880000000600f9
:10047000a1028800800078000000eb001a0037001d
:10048000e280400054a0b4009101ba00e280400034
:1004900054a0b4009102ba00e280400054a0b4001d
:1004a0000002eb00472bde00f507b200a601880032
:1004b000602ce10008003a000049eb000201e8006e
:1004c000020039003420ec0002f0a0008301e900b2
:1004d000f9ff3e00040037006128e100010032000e
:1004e0000082eb000b00070011c3ba001101ba0033
:1004f0000604e00003003a000200e000e0ff3a00da
:1005000000000600f607b200a6028800820078000c
:10051000f5ff370004d0a300e20f49001c003900aa
:10052000810278003549ba000201e8000200390072
:100530003420ec0002f0a0008301e9000f0032003b
:100540002549ba000201e800020039003420ec001d
:1005500002f0a0008301e900080032000400e0007e
:100560000600320015c9ba000201e8000200390095
:100570003420ec0002f0a0008301e9008180e80053
:1005800054a0b4000300e000e2ff3a0000000600bf
:100590009102ba00055978008301e900f7ff3200a3
:1005a000c82ade00055978008301e900f3ff320014
:1005b0000400e000f1ff320011d9ba00eeff37006d
:1005c0000040da000000fe006011b80000003700b3
:1005d000889fbe008a9fbe000082700004027100e6
:1005e00004827100260032000004be000200be003a
:1005f0006011b8006b092000950220000182cf0035
:100600000a0039000541b1000082cf00070039001f
:100610000541b1000982cf00040039000541b10055
:100620000882cf00010039000541b10005425200a7
:10063000120032000a003b008281710061016400f7
:100640008100d1000080d3008984d3000884d300c6
:100650008b05e8000442e800f7ff3a000700370086
:100660000804440089844c00000048008180480050
:100670008b05e9000442e900f9ff3a000300070096
:100680004f05be004f04be000000060081002000a0
:10069000618055000b003d000b00200061fe2f0023
:1006a0000100e1001d0034008281710061016400dd
:1006b0008904d1000884d3000000e800faff3a0062
:1006c00071002000610064000300700002006000ff
:1006d0000900320061044400e0844c000988a50050
:1006e000050032008b05e8006808e10002003a00ce
:1006f0008904d1000884d300f20f20000258e100e1
:1007000005003d00c75ddd00f907b2008980750076
:1007100008007800000006000bf827008b00780026
:0407200000000500d0
:020000040000fa
:10072400100000000d000000040000003f0600005f
:100734005b4f0000666d00007d0700007f6f0000c6
:10074400777c0000395e000079710000000200002f
:020000040000fa
:100754000000fa0080252000010020003d0307006e
:100764001602a80000000000b010800061006000c4
:100774000000e000fcff3a0080252000010020007a
:10078400340307000080fa00000006000000fa00ad
:1007940080252000010020002e0307001642a80037
:1007a40000000000b0108000640060000000e00061
:1007b400fcff3a00802520000100200025030700eb
:1007c4000080fa00000006000200fa00004f7800e2
:1007d40000000000c0108000610060000000e00024
:1007e400fcff3a001e00fb009010880080252000ca
:1007f40001002000170307000080fa000000060033
:100804000200fa00000f78001e007800a010880093
:1008140017e2a8000080fa00000006000400fa00b5
:10082400000f780011079800c9ff070020ceb3001d
:10083400e5ff070000ee2200010020000503070089
:1008440060c7b300e0ff070000ee220001002000b3
:100854000003070070c7b300dbff070000ee2200af
:1008640001002000fb0207001e00900000407800f9
:10087400d5ff070000ee220001002000f50207006a
:100884001e00780010407800cfff070000ee220021
:1008940001002000ef0207001e00e800104078006d
:1008a400c9ff070000ee220001002000e902070052
:1008b4001e80e80010407800c3ff070000ee22000d
:1008c40001002000e30207009e00780063804000de
:1008d40010407800bcff070000ee22000100200059
:1008e400dc020700a9ff07000080fa0000000600f0
:1008f4000000fa0021e3a90021a3a9002143a800d4
:10090400001980000080a1000090a1000019880057
:10091400001980000050a0000060a0000070a0003a
:10092400001988002043a8004040200010198800c6
:1009340025e3a90021198000f00f2e0080806000bb
:1009440000f020000100700020198800f0c0b300fe
:1009540024e3b7003223ef002e23ef000020200011
:10096400801988004119800000fe2f00008060007b
:100974004019880028e3a90021e3a800004b2000c7
:1009840001002000b30207000080fa000000060006
:100994000200fa00004f780021e3a90000d82800e3
:1009a400b1052000ab0207009e4078007fc06000c4
:1009b4000080fb007f0060004219800001fe2f00d0
:1009c40081006100010070004019880000d82800ef
:1009d400b10520009f02070021e3a8000080fa006f
:1009e400000006000000fa002023a8000000000018
:1009f40000198000620060000000e000fcff32008b
:100a04002023a90005003700000000000019800021
:100a1400610060000000e000fcff3200001980006b
:100a2400620060000000e000f7ff3a000018800058
:100a34008000eb00e3fe07000080fa0000000600df
:100a44000000fa00103a800000c0a00000d0a1000d
:100a540000e0a100103a8800103a80000080a00055
:100a64000090a10000a0a100103a880042e7a9006c
:100a740042c7a90042a7a80045e7a900203a800080
:100a840000c0a10000d0a10000e0a100203a88002d
:100a94004567a900203a80000080a1000090a100d1
:100aa40000a0a100203a8800203a80000060a10044
:100ab4000070a100203a8800213a800000fe2f0037
:100ac40000806000203a8800313a800000e02f0066
:100ad40080806000f003200001007000303a88003c
:100ae400413a800000fc2f00008060000020a0003c
:100af400403a88000080fa00000006000000fa0076
:100b0400103a800000c0a00000d0a10000e0a100c5
:100b1400103a8800103a80000080a0000090a100e4
:100b240000a0a100103a880042e7a90042c7a9002a
:100b340042a7a80045e7a900203a800000c0a10010
:100b440000d0a10000e0a100203a88004567a90078
:100b5400203a80000080a1000090a10000a0a10024
:100b6400203a8800203a80000060a0000070a000b5
:100b7400203a8800213a800000fe2f0000806000a7
:100b84006000b300203a8800313a800000e02f0072
:100b9400808060009008200001007000303a8800d6
:100ba400413a800000fc2f00008060000020a0007b
:100bb400403a88000080fa00000006000000fa00b5
:100bc40040108000610060000000e00062003a0014
:100bd400c0808000e20f500019003200e20f500084
:100be40005003e000000e0000a003200e10f500062
:100bf4000f00320061003700e40f50003000320073
:100c0400e40f500017003900e50f50003d0032009a
:100c14005a0037001270ef00401f20002010880097
:100c240007e2a80010002000c080880053003700ad
:100c34000602a80020002000c08088004f00370072
:100c440030108000610060000000e00044003a00c1
:100c5400000e20001010880030002000c0808800a2
:100c6400460037004110800000002400008060002e
:100c74000000e0003c003a00411080000000280021
:100c8400008060000000e0000a003a0012d0bf00bb
:100c94000080fb00a1072100008040001040780084
:100ca4000080fb001010880040002000c0808800f5
:100cb4003200370010002000c08088002f00370069
:100cc4004110800000002400008060000000e0006b
:100cd40027003a00411080000000280000806000d6
:100ce4000000e00004003a000642a8005000200082
:100cf400c08088002100370030002000c0808800b8
:100d04001e00370030108000640060000000e00026
:100d140019003a0012d0bf000040e80012f0b700fa
:100d240012d0bf000080fb00a1072100008040001a
:100d34009040780090c9b30080cf500003003a007f
:100d440060002000c08088000c00370010002000e4
:100d5400c080880009003700000000000700370049
:100d64000000000005003700000000000300370009
:100d74000000000001003700000000000080fa00bd
:100d8400000006000200fa00000f78009e007800c0
:100d9400803e200000017800110009008200d80084
:100da40080407800e0062100014878009e00780029
:100db400803e200000017800110009008200d80064
:100dc4008000fd00000f78009e007800400620009f
:100dd40000017800110009008200d80080407800ea
:100de400f0062100014878000007210011c1b3007a
:100df400014878009e007800400620000001780039
:100e0400110009008200d8008000fd00000f780066
:100e14009e007800a0002000000178001100090065
:100e24008200d80080407800100721000148780033
:100e34009e007800a0002000000178001100090045
:100e44008200d8008000fd00000f78001e007800aa
:100e5400804078002007210001487800e006210046
:100e64008080880010c0b3001af0b7000080fa0038
:100e7400000006000000fa00b0808000e20f50007d
:100e84001c003200e20f500005003e000000e000ac
:100e94000a003200e10f50001200320089003700ce
:100ea400e40f50002d003200e40f50001a00390006
:100eb400e50f500061003200820037001ad0bf00f5
:100ec4000004e000760032001270ef0010c0b3009e
:100ed4001bf0b7001a70ef0010002000b0808800eb
:100ee400780037000602a80020002000b0808800a7
:100ef4007400370030108000610060000000e000e2
:100f040069003a00000e2000101088003000200014
:100f1400b08088006b00370041108000000024007e
:100f2400008060000000e00061003a004110800091
:100f340000002800008060000000e00004003a0087
:100f44000222ef0040002000b08088005d003700de
:100f540010002000b08088005a0037004110800043
:100f640000002400008060000000e00052003a000d
:100f74004110800000002800008060000000e000b4
:100f840025003a008180800012d0bf000080fb0061
:100f940000804000104078000080fb008139280068
:100fa40000804000104078000080fb001010880092
:100fb40022d0bf000004a2000004e00003003200bd
:100fc40012d0bf000040e80012f0b70022d0bf00ea
:100fd4000004a2000080fb000040780022f0b7006b
:100fe4008180800012d0bf000080fb0000804000a0
:100ff4009040780090c9b30080cf500003003a00bd
:1010040050002000b08088002e00370040002000ef
:10101400b08088002b00370012d0bf000004e0002d
:1010240003003a0030002000b0808800250037001b
:1010340040002000b080880022003700411080006a
:1010440000002400008060000000e0001c003a0062
:101054004110800000002800008060000000e000d3
:1010640004003a000642a8001630ef001b70ef009f
:101074001400370012d0bf000040e90012f0b7009e
:1010840022d0bf000004a2000080fb0000407800d2
:1010940022f0b70040002000b0808800090037002b
:1010a40000000000070037000000000005003700c2
:1010b40000000000030037000000000001003700ba
:1010c400000000000080fa00000006003600f8006e
:1010d400809fbe00829fbe00849fbe00869fbe008c
:1010e4003200f8003400f80010002000a00188004d
:1010f4000020200090018800000000000000fa0099
:1011040014d0bf000004a2000004e0000c00320070
:101114001171800000002200008060000000e000e7
:101124000500320010c0b30014f0b7000021ef0036
:101134001e30ef002b0037001071800029003700ab
:1011440014d0bf000004e0002600320011718000ba
:1011540000002200008060000000e0001a0032005d
:10116400f1808000e0702200808f500004003c0079
:10117400f08080000000e800f08088000100370063
:101184001e30ef001bd0bf000004a2000004e000ea
:1011940004003200f0808000fafe07001c30ef00eb
:1011a40003003700e08080000000e800e080880051
:1011b400e0808000e50f50000a0034005000200059
:1011c400b080880007003700117180000000220001
:1011d400008060000000e00002003a001470ef009c
:1011e4000021ef000068a9000080fa003400f90033
:1011f4003200f9004f03be004f02be004f01be0093
:101204004f00be003600f900004006000000fa005e
:101214000bfe0700000ea900310ea9000f8ea900d5
:1012240021aea8002002a900001180000010a10036
:101234000020a1000011880020a2a9002062a900ba
:10124400601820004011880021e2a8002168a8004d
:101254002342a800101180000060a1000070a100ca
:10126400101188002136800000f82f008080600073
:101274007002200001007000203688005134800084
:1012840000fc2f00008060000000a00050348800a3
:10129400330ea80000702800313920006d000700cb
:1012a4001a70ef000042800000c0a10000d0a1002d
:1012b40000e0a000004288000021ef0000032800a5
:1012c4002008880080932000100888000068a90086
:1012d4002068a80039fe0700e6fe0700fdff37007e
:1012e400809fbe00821f78003200f8003400f800ae
:1012f40010002000a0018800002020009001880038
:10130400000000000000fa001b00370030118000cc
:10131400004078000ef0b7000000000011118000ba
:1013240000102000008060000000e000fbff32009d
:101334000ed0bf000080fb002011880000000000d8
:101344001111800000102000008060000000e00007
:10135400fbff320000818000e10021009140780011
:10136400020421000000410001487800008180004f
:101374000000e80000818800101180006100600016
:101384000000e000e1ff3a000168a9000080fa00d3
:101394003400f9003200f9004f0178004f00be001c
:0413a40000400600ff
:020000040000fa
:1013a800241000005a000000820000003030300095
:1013b80030303000303030003030300030303000e5
:1013c800303832003030330042453800323337008d
:1013d80032303000303030003030300030303000c3
:1013e80030303000303030003030300030303000b5
:1013f8003030300030303800323030003342450071
:101408003832330037327c00790079007199010055
:10141800020103000499380079007900009921003d
:1014280081ef99007e100000180000008000000085
:1014380000100000220000008000000022100000c0
:10144800020000008200000001000000480a80003d
:020000040000fa
:10145800f03fb1000180b10006003500ee0309003d
:1014680000000000403fb1000180b100fbff3d00db
:101478001000b000203fb0000200350000800900d5
:08148800000000000000060056
:020000040000fa
:041490000000000058
:020000040000fa
:020000040005f5
:045fe000cdff0000f1
:020000040000fa
:020000040005f5
:045fe400ffff0000bb
:020000040000fa
:020000040005f5
:045fe8007fff000037
:020000040000fa
:020000040005f5
:045fec00bfff0000f3
:020000040000fa
:020000040005f5
:045ff000f9ff0000b5
:020000040000fa
:020000040005f5
:045ff400ffff0000ab
:00000001FF
