:020000040000fa
:080000000002040000000000f2
:020000040000fa
:04000800e002000012
:020000040000fa
:04000c00e00200000e
:020000040000fa
:04001000e00200000a
:020000040000fa
:04001400e002000006
:020000040000fa
:04001800e002000002
:020000040000fa
:04001c00e0020000fe
:020000040000fa
:04002000e0020000fa
:020000040000fa
:04002400e0020000f6
:020000040000fa
:04002800e0020000f2
:020000040000fa
:04002c00e0020000ee
:020000040000fa
:04003000e0020000ea
:020000040000fa
:04003400700900004f
:020000040000fa
:04003800e0020000e2
:020000040000fa
:04003c00e0020000de
:020000040000fa
:04004000e0020000da
:020000040000fa
:04004400e0020000d6
:020000040000fa
:04004800e0020000d2
:020000040000fa
:04004c00e0020000ce
:020000040000fa
:04005000e0020000ca
:020000040000fa
:04005400860600001c
:020000040000fa
:04005800e0020000c2
:020000040000fa
:04005c00e0020000be
:020000040000fa
:04006000e0020000ba
:020000040000fa
:04006400e0020000b6
:020000040000fa
:04006800e0020000b2
:020000040000fa
:04006c00e0020000ae
:020000040000fa
:04007000e0020000aa
:020000040000fa
:04007400e0020000a6
:020000040000fa
:04007800e0020000a2
:020000040000fa
:04007c00e00200009e
:020000040000fa
:04008000e00200009a
:020000040000fa
:04008400e002000096
:020000040000fa
:04008800e002000092
:020000040000fa
:04008c00e00200008e
:020000040000fa
:04009000e00200008a
:020000040000fa
:04009400e002000086
:020000040000fa
:04009800e002000082
:020000040000fa
:04009c00e00200007e
:020000040000fa
:0400a000e00200007a
:020000040000fa
:0400a400e002000076
:020000040000fa
:0400a800e002000072
:020000040000fa
:0400ac00e00200006e
:020000040000fa
:0400b000e00200006a
:020000040000fa
:0400b400e002000066
:020000040000fa
:0400b800e002000062
:020000040000fa
:0400bc00e00200005e
:020000040000fa
:0400c000e00200005a
:020000040000fa
:0400c400e002000056
:020000040000fa
:0400c800e002000052
:020000040000fa
:0400cc00e00200004e
:020000040000fa
:0400d000e00200004a
:020000040000fa
:0400d400e002000046
:020000040000fa
:0400d800e002000042
:020000040000fa
:0400dc00e00200003e
:020000040000fa
:0400e000e00200003a
:020000040000fa
:0400e400e002000036
:020000040000fa
:0400e800e002000032
:020000040000fa
:0400ec00e00200002e
:020000040000fa
:0400f000e00200002a
:020000040000fa
:0400f400e002000026
:020000040000fa
:0400f800e002000022
:020000040000fa
:0400fc00e00200001e
:020000040000fa
:04010000e002000019
:020000040000fa
:04010400e002000015
:020000040000fa
:04010800e002000011
:020000040000fa
:04010c00e00200000d
:020000040000fa
:04011000e002000009
:020000040000fa
:04011400e002000005
:020000040000fa
:04011800e002000001
:020000040000fa
:04011c00e0020000fd
:020000040000fa
:04012000e0020000f9
:020000040000fa
:04012400e0020000f5
:020000040000fa
:04012800e0020000f1
:020000040000fa
:04012c00e0020000ed
:020000040000fa
:04013000e0020000e9
:020000040000fa
:04013400e0020000e5
:020000040000fa
:04013800e0020000e1
:020000040000fa
:04013c00e0020000dd
:020000040000fa
:04014000e0020000d9
:020000040000fa
:04014400e0020000d5
:020000040000fa
:04014800e0020000d1
:020000040000fa
:04014c00e0020000cd
:020000040000fa
:04015000e0020000c9
:020000040000fa
:04015400e0020000c5
:020000040000fa
:04015800e0020000c1
:020000040000fa
:04015c00e0020000bd
:020000040000fa
:04016000e0020000b9
:020000040000fa
:04016400e0020000b5
:020000040000fa
:04016800e0020000b1
:020000040000fa
:04016c00e0020000ad
:020000040000fa
:04017000e0020000a9
:020000040000fa
:04017400e0020000a5
:020000040000fa
:04017800e0020000a1
:020000040000fa
:04017c00e00200009d
:020000040000fa
:04018000e002000099
:020000040000fa
:04018400e002000095
:020000040000fa
:04018800e002000091
:020000040000fa
:04018c00e00200008d
:020000040000fa
:04019000e002000089
:020000040000fa
:04019400e002000085
:020000040000fa
:04019800e002000081
:020000040000fa
:04019c00e00200007d
:020000040000fa
:0401a000e002000079
:020000040000fa
:0401a400e002000075
:020000040000fa
:0401a800e002000071
:020000040000fa
:0401ac00e00200006d
:020000040000fa
:0401b000e002000069
:020000040000fa
:0401b400e002000065
:020000040000fa
:0401b800e002000061
:020000040000fa
:0401bc00e00200005d
:020000040000fa
:0401c000e002000059
:020000040000fa
:0401c400e002000055
:020000040000fa
:0401c800e002000051
:020000040000fa
:0401cc00e00200004d
:020000040000fa
:0401d000e002000049
:020000040000fa
:0401d400e002000045
:020000040000fa
:0401d800e002000041
:020000040000fa
:0401dc00e00200003d
:020000040000fa
:0401e000e002000039
:020000040000fa
:0401e400e002000035
:020000040000fa
:0401e800e002000031
:020000040000fa
:0401ec00e00200002d
:020000040000fa
:0401f000e002000029
:020000040000fa
:0401f400e002000025
:020000040000fa
:0401f800e002000021
:020000040000fa
:0401fc00e00200001d
:020000040000fa
:04020000e002000018
:020000040000fa
:04020400e002000014
:020000040000fa
:04020800e002000010
:020000040000fa
:04020c00e00200000c
:020000040000fa
:04021000e002000008
:020000040000fa
:04021400e002000004
:020000040000fa
:04021800e002000000
:020000040000fa
:04021c00e0020000fc
:020000040000fa
:04022000e0020000f8
:020000040000fa
:04022400e0020000f4
:020000040000fa
:04022800e0020000f0
:020000040000fa
:04022c00e0020000ec
:020000040000fa
:04023000e0020000e8
:020000040000fa
:04023400e0020000e4
:020000040000fa
:04023800e0020000e0
:020000040000fa
:04023c00e0020000dc
:020000040000fa
:04024000e0020000d8
:020000040000fa
:04024400e0020000d4
:020000040000fa
:04024800e0020000d0
:020000040000fa
:04024c00e0020000cc
:020000040000fa
:04025000e0020000c8
:020000040000fa
:04025400e0020000c4
:020000040000fa
:04025800e0020000c0
:020000040000fa
:04025c00e0020000bc
:020000040000fa
:04026000e0020000b8
:020000040000fa
:04026400e0020000b4
:020000040000fa
:04026800e0020000b0
:020000040000fa
:04026c00e0020000ac
:020000040000fa
:04027000e0020000a8
:020000040000fa
:04027400e0020000a4
:020000040000fa
:04027800e0020000a0
:020000040000fa
:04027c00e00200009c
:020000040000fa
:04028000e002000098
:020000040000fa
:10040000ef1621000eff27000e01880000000000fb
:10041000000020000000e000020032000001200087
:10042000200288000c00070000a12000010020002d
:100430000f000700000020000000e0000200320072
:100440000000020000000000e005020000000000c3
:100450000040da000000fe00800120000000e00003
:1004600002003200002020009001880000000600f9
:10047000a1028800800078000000eb001a0037001d
:10048000e280400054a0b4009101ba00e280400034
:1004900054a0b4009102ba00e280400054a0b4001d
:1004a0000002eb00472bde00f507b200a601880032
:1004b000602ce10008003a000049eb000201e8006e
:1004c000020039003420ec0002f0a0008301e900b2
:1004d000f9ff3e00040037006128e100010032000e
:1004e0000082eb000b00070011c3ba001101ba0033
:1004f0000604e00003003a000200e000e0ff3a00da
:1005000000000600f607b200a6028800820078000c
:10051000f5ff370004d0a300e20f49001c003900aa
:10052000810278003549ba000201e8000200390072
:100530003420ec0002f0a0008301e9000f0032003b
:100540002549ba000201e800020039003420ec001d
:1005500002f0a0008301e900080032000400e0007e
:100560000600320015c9ba000201e8000200390095
:100570003420ec0002f0a0008301e9008180e80053
:1005800054a0b4000300e000e2ff3a0000000600bf
:100590009102ba00055978008301e900f7ff3200a3
:1005a000c82ade00055978008301e900f3ff320014
:1005b0000400e000f1ff320011d9ba00eeff37006d
:1005c0000040da000000fe006011b80000003700b3
:1005d000889fbe008a9fbe000082700004027100e6
:1005e00004827100260032000004be000200be003a
:1005f0006011b8006b092000950220000182cf0035
:100600000a0039000541b1000082cf00070039001f
:100610000541b1000982cf00040039000541b10055
:100620000882cf00010039000541b10005425200a7
:10063000120032000a003b008281710061016400f7
:100640008100d1000080d3008984d3000884d300c6
:100650008b05e8000442e800f7ff3a000700370086
:100660000804440089844c00000048008180480050
:100670008b05e9000442e900f9ff3a000300070096
:100680004f05be004f04be000000060081002000a0
:10069000618055000b003d000b00200061fe2f0023
:1006a0000100e1001d0034008281710061016400dd
:1006b0008904d1000884d3000000e800faff3a0062
:1006c00071002000610064000300700002006000ff
:1006d0000900320061044400e0844c000988a50050
:1006e000050032008b05e8006808e10002003a00ce
:1006f0008904d1000884d300f20f20000258e100e1
:1007000005003d00c75ddd00f907b2008980750076
:1007100008007800000006000bf827008b00780026
:0407200000000500d0
:020000040000fa
:100724003f0600005b4f0000666d00007d0700007f
:100734007f6f0000777c0000395e00007971000053
:1007440000020000100000000d0000000400000082
:020000040000fa
:100754000000fa008025200001002000a303070008
:100764001602a80000000000b010800061006000c4
:100774000000e000fcff3a0080252000010020007a
:100784009a0307000080fa00000006000000fa0047
:100794008025200001002000940307001642a800d1
:1007a40000000000b0108000640060000000e00061
:1007b400fcff3a0080252000010020008b03070085
:1007c4000080fa00000006000200fa00004f7800e2
:1007d40000000000c0108000610060000000e00024
:1007e400fcff3a001e00fb009010880080252000ca
:1007f400010020007d0307000080fa0000000600cd
:100804000200fa00000f78001e007800a010880093
:1008140017e2a8000080fa00000006000400fa00b5
:10082400000f780011079800c9ff070020ceb3001d
:10083400e5ff070000ee2200010020006b03070023
:1008440060c7b300e0ff070000ee220001002000b3
:100854006603070070c7b300dbff070000ee220049
:1008640001002000610307001e0090000040780092
:10087400d5ff070000ee2200010020005b03070003
:100884001e00780010407800cfff070000ee220021
:1008940001002000550307001e00e8001040780006
:1008a400c9ff070000ee2200010020004f030700eb
:1008b4001e80e80010407800c3ff070000ee22000d
:1008c40001002000490307009e0078006380400077
:1008d40010407800bcff070000ee22000100200059
:1008e40042030700a9ff07000080fa000000060089
:1008f4000000fa0021e3a90021a3a9002143a800d4
:10090400001980000080a1000090a1000019880057
:10091400001980000050a0000060a0000070a0003a
:10092400001988002043a8004040200010198800c6
:1009340025e3a90021198000f00f2e0080806000bb
:1009440000f020000100700020198800f0c0b300fe
:1009540024e3b7003223ef002e23ef000020200011
:10096400801988004119800000fe2f00008060007b
:100974004019880028e3a90021e3a800004b2000c7
:1009840001002000190307000080fa00000006009f
:100994000200fa00004f780021e3a90000d82800e3
:1009a400b1052000110307009e4078007fc060005d
:1009b4000080fb007f0060004219800001fe2f00d0
:1009c40081006100010070004019880000d82800ef
:1009d400b10520000503070021e3a8000080fa0008
:1009e400000006000000fa002023a8000000000018
:1009f40000198000620060000000e000fcff32008b
:100a04002023a90005003700000000000019800021
:100a1400610060000000e000fcff3200001980006b
:100a2400620060000000e000f7ff3a000018800058
:100a34008000eb00e3fe07000080fa0000000600df
:100a44000000fa00103a800000c0a00000d0a1000d
:100a540000e0a100103a8800103a80000080a00055
:100a64000090a10000a0a100103a880042e7a9006c
:100a740042c7a90042a7a80045e7a900203a800080
:100a840000c0a10000d0a10000e0a100203a88002d
:100a94004567a900203a80000080a1000090a100d1
:100aa40000a0a100203a8800203a80000060a10044
:100ab4000070a100203a8800213a800000fe2f0037
:100ac40000806000203a8800313a800000e02f0066
:100ad40080806000f003200001007000303a88003c
:100ae400413a800000fc2f00008060000020a0003c
:100af400403a88000080fa00000006000000fa0076
:100b0400103a800000c0a00000d0a10000e0a100c5
:100b1400103a8800103a80000080a0000090a100e4
:100b240000a0a100103a880042e7a90042c7a9002a
:100b340042a7a80045e7a900203a800000c0a10010
:100b440000d0a10000e0a100203a88004567a90078
:100b5400203a80000080a1000090a10000a0a10024
:100b6400203a8800203a80000060a0000070a000b5
:100b7400203a8800213a800000fe2f0000806000a7
:100b84006000b300203a8800313a800000e02f0072
:100b9400808060009008200001007000303a8800d6
:100ba400413a800000fc2f00008060000020a0007b
:100bb400403a88000080fa00000006000000fa00b5
:100bc4009fff070000482100f13e20008702070034
:100bd400000ea900310ea9000f8ea90021aea800b5
:100be4002002a900001180000010a1000020a10033
:100bf4000011880020a2a9002062a900601820002a
:100c04004011880021e2a8002168a8002342a8001e
:100c1400101180000060a1000070a1001011880074
:100c24002136800000f82f008080600070022000d0
:100c340001007000203688005134800000fc2f0031
:100c4400008060000000a000503488003002a90039
:100c5400801180000010a1000020a10080118800f4
:100c640030a2a9003062a90060182000c0118800d9
:100c740031e2a8003342a800901180000060a10076
:100c84000070a100901188003136800000f82f0018
:100c940080806000c00220000100700030368800af
:100ca40041348000f00f2c00808060000030200070
:100cb4000100700040348800330ea8000070280042
:100cc40031392000490207000042800000c0a10021
:100cd40000d0a10000e0a000004288000021ef0045
:100ce4000003280020088800809320001008880052
:100cf4000068a9002068a80034000700e10007008c
:100d040013020700fcff3700809fbe00821f78009b
:100d14003200f8003400f80010002000a001880020
:100d24000020200090018800000000000000fa006c
:100d34001b00370030118000004078000ef0b7002f
:100d440000000000111180000010200000806000ed
:100d54000000e000fbff32000ed0bf000080fb006b
:100d640020118800000000001111800000102000f4
:100d7400008060000000e000fbff32008080800003
:100d8400e100210091407800220f21000000410081
:100d940001487800808080000000e800808088009e
:100da40010118000610060000000e000e1ff3a00e3
:100db4000168a9000080fa003400f9003200f9004b
:100dc4004f0178004f00be00004006000000fa000a
:100dd40040108000610060000000e00062003a0002
:100de400d0808000e20f500019003200e20f500062
:100df40005003e000000e0000a003200e10f500050
:100e04000f00320061003700e40f50003000320060
:100e1400e40f500017003900e50f50003d00320088
:100e24005a0037001470ef00401f20002010880083
:100e340007e2a80010002000d0808800530037008b
:100e44000602a80020002000d08088004f00370050
:100e540030108000610060000000e00044003a00af
:100e6400000e20001010880030002000d080880080
:100e7400460037004110800000002400008060001c
:100e84000000e0003c003a0041108000000028000f
:100e9400008060000000e0000a003a0014d0bf00a7
:100ea4000080fb00a1162100008040001040780063
:100eb4000080fb001010880040002000d0808800d3
:100ec4003200370010002000d08088002f00370047
:100ed4004110800000002400008060000000e00059
:100ee40027003a00411080000000280000806000c4
:100ef4000000e00004003a000642a8005000200070
:100f0400d08088002100370030002000d080880085
:100f14001e00370030108000640060000000e00014
:100f240019003a0014d0bf000040e80014f0b700e4
:100f340014d0bf000080fb00a116210000804000f7
:100f44009040780090c9b30080cf500003003a006d
:100f540060002000d08088000c00370010002000c2
:100f6400d080880009003700000000000700370027
:100f740000000000050037000000000003003700f7
:100f84000000000001003700000000000080fa00ab
:100f9400000006000200fa00000f78009e007800ae
:100fa400803e200000017800110009008200d80072
:100fb40080407800e0152100014878009e00780008
:100fc400803e200000017800110009008200d80052
:100fd4008000fd00000f78009e007800400620008d
:100fe40000017800110009008200d80080407800d8
:100ff400f0152100014878000016210011c1b3004a
:10100400014878009e007800400620000001780026
:10101400110009008200d8008000fd00000f780054
:101024009e007800a0002000000178001100090053
:101034008200d80080407800101621000148780012
:101044009e007800a0002000000178001100090033
:101054008200d8008000fd00000f78001e00780098
:10106400804078002016210001487800e015210016
:101074009080880010c0b3001cf0b7000080fa0014
:10108400000006000000fa00c0808000e20f50005b
:101094001c003200e20f500005003e000000e0009a
:1010a4000a003200e10f50001200320089003700bc
:1010b400e40f50002d003200e40f50001a003900f4
:1010c400e50f500061003200820037001cd0bf00e1
:1010d4000004e000760032001470ef0010c0b3008a
:1010e4001df0b7001c70ef0010002000c0808800c5
:1010f400780037000602a80020002000c080880085
:101104007400370030108000610060000000e000cf
:1011140069003a00000e2000101088003000200002
:10112400c08088006b00370041108000000024005c
:10113400008060000000e00061003a00411080007f
:1011440000002800008060000000e00004003a0075
:101154000222ef0040002000c08088005d003700bc
:1011640010002000c08088005a0037004110800021
:1011740000002400008060000000e00052003a00fb
:101184004110800000002800008060000000e000a2
:1011940025003a009180800014d0bf000080fb003d
:1011a40000804000104078000080fb0021392800b6
:1011b40000804000104078000080fb001010880080
:1011c40026d0bf000004a2000004e00003003200a7
:1011d40014d0bf000040e80014f0b70026d0bf00d0
:1011e4000004a2000080fb000040780026f0b70055
:1011f4009180800014d0bf000080fb00008040007c
:101204009040780090c9b30080cf500003003a00aa
:1012140050002000c08088002e00370040002000cd
:10122400c08088002b00370014d0bf000004e00009
:1012340003003a0030002000c080880025003700f9
:1012440040002000c0808800220037004110800048
:1012540000002400008060000000e0001c003a0050
:101264004110800000002800008060000000e000c1
:1012740004003a000642a8001830ef001d70ef0089
:101284001400370014d0bf000040e90014f0b70088
:1012940026d0bf000004a2000080fb0000407800bc
:1012a40026f0b70040002000c08088000900370005
:1012b40000000000070037000000000005003700b0
:1012c40000000000030037000000000001003700a8
:1012d400000000000080fa00000006003600f8005c
:1012e400809fbe00829fbe00849fbe00869fbe007a
:1012f4003200f8003400f80010002000a00188003b
:101304000020200090018800000000000000fa0086
:1013140016d0bf000004a2000004e0000c0032005c
:101324001171800000002200008060000000e000d5
:101334000500320010c0b30016f0b7000021ef0022
:101344002030ef002b003700107180002900370097
:1013540016d0bf000004e0002600320011718000a6
:1013640000002200008060000000e0001a0032004b
:1013740001818000e0702200808f500004003c0056
:10138400008180000000e80000818800010037002f
:101394002030ef001dd0bf000004a2000004e000d4
:1013a4000400320000818000fafe07001e30ef00c6
:1013b40003003700f08080000000e800f08088001f
:1013c400f0808000e50f50000a0034005000200037
:1013d400c0808800070037001171800000002200df
:1013e400008060000000e00002003a001670ef0088
:1013f4000021ef000068a9000080fa003400f90021
:101404003200f9004f03be004f02be004f01be0080
:0c1414004f00be003600f900004006004a
:020000040000fa
:101420005811000016000000820000007c790000c6
:1014300079719900010201000304990038790000d4
:10144000790099002181ef0099000000121000003e
:1014500010000000800000002610000002000000c4
:101460008200000001000000d610000044000000cf
:10147000820000003030300030303000303030003a
:10148000303030003030300030383200303033000f
:1014900042453800323337003230300030303000cf
:1014a00030303000303030003030300030303000fc
:1014b00030303000303030003030300030303800e4
:1014c00032303000334245003832330037320000ca
:1014d0004011000018000000800000000010000013
:1014e00012000000800000001a1100002600000019
:1014f000820000007e000f001001000013a2000017
:101500004060f40098fffe0000000000107e000024
:101510000f1001000013a20000406000f498ff00cb
:10152000fe000000030d00002a100000ac000000c7
:101530008000000022100000040000008000000075
:1015400028100000020000008200000001000000de
:04155000140b8000f8
:020000040000fa
:101554000000fa00108180000000e0000300320067
:10156400e10f5000080032001e00370028d0bf00f1
:101574000004e0001a0032002870ef001000200080
:1015840010818800170037000000000091118000ce
:1015940000102000008060000000e000fbff32002b
:1015a40020818000a11121000080400010407800bb
:1015b4000080fb00a0118800208180000000e8006a
:1015c4002081880020818000f30f500005003a003c
:1015d40020002000108188002430ef000100370033
:0c15e400000000000080fa00000006007b
:020000040000fa
:1015f000f03fb1000180b10006003500ee030900a4
:1016000000000000403fb1000180b100fbff3d0041
:101610001000b000203fb00002003500008009003b
:081620000000000000000600bc
:020000040000fa
:0416280000000000be
:020000040000fa
:020000040005f5
:045fe000cdff0000f1
:020000040000fa
:020000040005f5
:045fe400ffff0000bb
:020000040000fa
:020000040005f5
:045fe8007fff000037
:020000040000fa
:020000040005f5
:045fec00bfff0000f3
:020000040000fa
:020000040005f5
:045ff000f9ff0000b5
:020000040000fa
:020000040005f5
:045ff400ffff0000ab
:00000001FF
