:020000040000fa
:080000000002040000000000f2
:020000040000fa
:04000800e40200000e
:020000040000fa
:04000c00e40200000a
:020000040000fa
:04001000e402000006
:020000040000fa
:04001400e402000002
:020000040000fa
:04001800e4020000fe
:020000040000fa
:04001c00e4020000fa
:020000040000fa
:04002000e4020000f6
:020000040000fa
:04002400e4020000f2
:020000040000fa
:04002800e4020000ee
:020000040000fa
:04002c00e4020000ea
:020000040000fa
:04003000e4020000e6
:020000040000fa
:04003400e4020000e2
:020000040000fa
:04003800e4020000de
:020000040000fa
:04003c00e4020000da
:020000040000fa
:04004000e4020000d6
:020000040000fa
:04004400e4020000d2
:020000040000fa
:04004800580f00004d
:020000040000fa
:04004c00e4020000ca
:020000040000fa
:04005000e4020000c6
:020000040000fa
:04005400e4020000c2
:020000040000fa
:04005800e4020000be
:020000040000fa
:04005c00e4020000ba
:020000040000fa
:04006000e4020000b6
:020000040000fa
:04006400e4020000b2
:020000040000fa
:04006800e4020000ae
:020000040000fa
:04006c00e4020000aa
:020000040000fa
:04007000e4020000a6
:020000040000fa
:04007400e4020000a2
:020000040000fa
:04007800e40200009e
:020000040000fa
:04007c00e40200009a
:020000040000fa
:04008000e402000096
:020000040000fa
:04008400e402000092
:020000040000fa
:04008800e40200008e
:020000040000fa
:04008c00e40200008a
:020000040000fa
:04009000e402000086
:020000040000fa
:04009400e402000082
:020000040000fa
:04009800e40200007e
:020000040000fa
:04009c00e40200007a
:020000040000fa
:0400a000e402000076
:020000040000fa
:0400a400e402000072
:020000040000fa
:0400a800e40200006e
:020000040000fa
:0400ac00e40200006a
:020000040000fa
:0400b000e402000066
:020000040000fa
:0400b400e402000062
:020000040000fa
:0400b800e40200005e
:020000040000fa
:0400bc00e40200005a
:020000040000fa
:0400c000e402000056
:020000040000fa
:0400c400e402000052
:020000040000fa
:0400c800e40200004e
:020000040000fa
:0400cc00e40200004a
:020000040000fa
:0400d000e402000046
:020000040000fa
:0400d400e402000042
:020000040000fa
:0400d800e40200003e
:020000040000fa
:0400dc00e40200003a
:020000040000fa
:0400e000e402000036
:020000040000fa
:0400e400e402000032
:020000040000fa
:0400e800e40200002e
:020000040000fa
:0400ec00e40200002a
:020000040000fa
:0400f000e402000026
:020000040000fa
:0400f400e402000022
:020000040000fa
:0400f800e40200001e
:020000040000fa
:0400fc00e40200001a
:020000040000fa
:04010000e402000015
:020000040000fa
:04010400e402000011
:020000040000fa
:04010800e40200000d
:020000040000fa
:04010c00e402000009
:020000040000fa
:04011000e402000005
:020000040000fa
:04011400e402000001
:020000040000fa
:04011800e4020000fd
:020000040000fa
:04011c00e4020000f9
:020000040000fa
:04012000e4020000f5
:020000040000fa
:04012400e4020000f1
:020000040000fa
:04012800e4020000ed
:020000040000fa
:04012c00e4020000e9
:020000040000fa
:04013000e4020000e5
:020000040000fa
:04013400e4020000e1
:020000040000fa
:04013800e4020000dd
:020000040000fa
:04013c00e4020000d9
:020000040000fa
:04014000e4020000d5
:020000040000fa
:04014400e4020000d1
:020000040000fa
:04014800e4020000cd
:020000040000fa
:04014c00e4020000c9
:020000040000fa
:04015000e4020000c5
:020000040000fa
:04015400e4020000c1
:020000040000fa
:04015800e4020000bd
:020000040000fa
:04015c00e4020000b9
:020000040000fa
:04016000e4020000b5
:020000040000fa
:04016400e4020000b1
:020000040000fa
:04016800e4020000ad
:020000040000fa
:04016c00e4020000a9
:020000040000fa
:04017000e4020000a5
:020000040000fa
:04017400e4020000a1
:020000040000fa
:04017800e40200009d
:020000040000fa
:04017c00e402000099
:020000040000fa
:04018000e402000095
:020000040000fa
:04018400e402000091
:020000040000fa
:04018800e40200008d
:020000040000fa
:04018c00e402000089
:020000040000fa
:04019000e402000085
:020000040000fa
:04019400e402000081
:020000040000fa
:04019800e40200007d
:020000040000fa
:04019c00e402000079
:020000040000fa
:0401a000e402000075
:020000040000fa
:0401a400e402000071
:020000040000fa
:0401a800e40200006d
:020000040000fa
:0401ac00e402000069
:020000040000fa
:0401b000e402000065
:020000040000fa
:0401b400e402000061
:020000040000fa
:0401b800e40200005d
:020000040000fa
:0401bc00e402000059
:020000040000fa
:0401c000e402000055
:020000040000fa
:0401c400e402000051
:020000040000fa
:0401c800e40200004d
:020000040000fa
:0401cc00e402000049
:020000040000fa
:0401d000e402000045
:020000040000fa
:0401d400e402000041
:020000040000fa
:0401d800e40200003d
:020000040000fa
:0401dc00e402000039
:020000040000fa
:0401e000e402000035
:020000040000fa
:0401e400e402000031
:020000040000fa
:0401e800e40200002d
:020000040000fa
:0401ec00e402000029
:020000040000fa
:0401f000e402000025
:020000040000fa
:0401f400e402000021
:020000040000fa
:0401f800e40200001d
:020000040000fa
:0401fc00e402000019
:020000040000fa
:04020000e402000014
:020000040000fa
:04020400e402000010
:020000040000fa
:04020800e40200000c
:020000040000fa
:04020c00e402000008
:020000040000fa
:04021000e402000004
:020000040000fa
:04021400e402000000
:020000040000fa
:04021800e4020000fc
:020000040000fa
:04021c00e4020000f8
:020000040000fa
:04022000e4020000f4
:020000040000fa
:04022400e4020000f0
:020000040000fa
:04022800e4020000ec
:020000040000fa
:04022c00e4020000e8
:020000040000fa
:04023000e4020000e4
:020000040000fa
:04023400e4020000e0
:020000040000fa
:04023800e4020000dc
:020000040000fa
:04023c00e4020000d8
:020000040000fa
:04024000e4020000d4
:020000040000fa
:04024400e4020000d0
:020000040000fa
:04024800e4020000cc
:020000040000fa
:04024c00e4020000c8
:020000040000fa
:04025000e4020000c4
:020000040000fa
:04025400e4020000c0
:020000040000fa
:04025800e4020000bc
:020000040000fa
:04025c00e4020000b8
:020000040000fa
:04026000e4020000b4
:020000040000fa
:04026400e4020000b0
:020000040000fa
:04026800e4020000ac
:020000040000fa
:04026c00e4020000a8
:020000040000fa
:04027000e4020000a4
:020000040000fa
:04027400e4020000a0
:020000040000fa
:04027800e40200009c
:020000040000fa
:04027c00e402000098
:020000040000fa
:04028000e402000094
:020000040000fa
:10040000af0421000eff27000e018800000000004d
:10041000000020000000e000020032000001200087
:10042000200288000c000700a0012100010020002c
:100430000f000700000020000000e0000200320072
:100440000000020000000000ac0f020000000000ed
:100450000040da000000fe00600020000000e00024
:1004600002003200002020009001880000000600f9
:10047000a1028800800078000000eb001a0037001d
:10048000e280400054a0b4009101ba00e280400034
:1004900054a0b4009102ba00e280400054a0b4001d
:1004a0000002eb00472bde00f507b200a601880032
:1004b000602ce10008003a000049eb000201e8006e
:1004c000020039003420ec0002f0a0008301e900b2
:1004d000f9ff3e00040037006128e100010032000e
:1004e0000082eb000b00070011c3ba001101ba0033
:1004f0000604e00003003a000200e000e0ff3a00da
:1005000000000600f607b200a6028800820078000c
:10051000f5ff370004d0a300e20f49001c003900aa
:10052000810278003549ba000201e8000200390072
:100530003420ec0002f0a0008301e9000f0032003b
:100540002549ba000201e800020039003420ec001d
:1005500002f0a0008301e900080032000400e0007e
:100560000600320015c9ba000201e8000200390095
:100570003420ec0002f0a0008301e9008180e80053
:1005800054a0b4000300e000e2ff3a0000000600bf
:100590009102ba00055978008301e900f7ff3200a3
:1005a000c82ade00055978008301e900f3ff320014
:1005b0000400e000f1ff320011d9ba00eeff37006d
:1005c00096030400000000000040da000000fe0076
:1005d0006011b80000003700889fbe008a9fbe00ef
:1005e0000082700004027100048271002600320053
:1005f0000004be000200be006011b8006b092000bc
:10060000950220000182cf000a0039000541b100a7
:100610000082cf00070039000541b1000982cf00f8
:10062000040039000541b1000882cf000100390003
:100630000541b10005425200120032000a003b00a1
:1006400082817100610164008100d1000080d300cb
:100650008984d3000884d3008b05e8000442e800b5
:10066000f7ff3a00070037000804440089844c0073
:1006700000004800818048008b05e9000442e90041
:10068000f9ff3a00030007004f05be004f04be000b
:100690000000060081002000618055000b003d0035
:1006a0000b00200061fe2f000100e1001d0034005e
:1006b00082817100610164008904d1000884d30043
:1006c0000000e800faff3a007100200061006400b9
:1006d0000300700002006000090032006104440061
:1006e000e0844c000988a500050032008b05e80075
:1006f0006808e10002003a008904d1000884d300b0
:10070000f20f20000258e10005003d00c75ddd004a
:10071000f907b20089807500080078000000060023
:100720000bf827008b00780000000500881f780078
:100730000204780008017800d20107000800400098
:100740004f047800000006000000fa00881f7800bf
:1007500000047800ea8157003fb9970088007800cc
:1007600060392000070007000000e00002003500ab
:1007700000044400004ceb004f0478000080fa00b5
:10078000000006006200fa00889fbe008a1f780001
:100790000005780081047800020478008300780066
:1007a00080f92f000f004000bc0307009a979f00bc
:1007b000a9979f000000eb00b09f9f001885fb00e9
:1007c0008a04fb000a05ea004f55de0050022000b3
:1007d000808f54000d003200e10f55000b003a00ed
:1007e0000a017800880078002f9097009f91970069
:1007f00003000100a0979f000000e0008e0032007f
:100800003f9897000000e800b09f9f000a04440052
:1008100050022000808f5400040032000900e000e4
:10082000e6ff3a003f989700840037000000eb0095
:10083000909f9f00809f9f00f0979f00e0979f00f0
:10084000d0979f00c0979f00070037000104210048
:100850000100500000004000410321008080400062
:100860005f98970011007000d09f9f008804780067
:1008700009047800384578008a00fb000004210054
:10088000870107000000e000f0ff3a00a1c2b300ba
:10089000814f55000e003a00cf8897000180e90093
:1008a000c08f9f0010007800c09f9f000000e000f4
:1008b00005003d000000ea00c09f9f005f98970080
:1008c0000020a000d09f9f000904e8000f0037001f
:1008d000c09f9f000000eb0005003700f2ff2700db
:1008e000820f500002003200ea00b9000080400090
:1008f0000904780088047800b900fb000103b10006
:10090000e98f5000f5ff3600c09f9f00e0c2b300a2
:10091000984f1000020032000080eb0019003700f1
:10092000a0c2b300d84f100007003a00cf8897004c
:100930000180e900c08f9f0010007800a09f9f00f9
:100940000804e800100037000000eb00a09f9f00a3
:100950008800780005003700f3ff2700830f500060
:1009600002003200ea00b9000000410001047800f2
:10097000880078003101fb000203b100e90f51004b
:10098000f5ff3600a09f9f00984478008900fb0087
:10099000c0022100420107000000e0000200320016
:1009a0000804e800010037008044eb00c97f9f0085
:1009b00080c6b30080cf540004003a0098cf1400e2
:1009c0000a003a006640500006003700c0c6b30077
:1009d00080cf540005003a0098cf140003003a007d
:1009e00065404000c07f9f000804e8001801fb003c
:1009f000e3fb2f008f81410081f92f008f804000a1
:100a0000a0f92f000f004000100007000000e000d8
:100a100009003a00e1fb2f008f804000a0f92f0071
:100a20000f004000610207000000e00002003500f6
:100a30000804e80061ff37000080eb004f057800f4
:100a40004f04be000080fa0000000600881f7800f6
:100a5000e4c6b300844f5100bc00320010003c00db
:100a60006b425200844f51001800320005003c00d8
:100a700054c2b300844f5100f400320084c5b30067
:100a80000f00370044c6b300844f510015003200f8
:100a900065424200844f5100ef003a0011003700d8
:100aa00004c7b300844f5100db003200570035000b
:100ab00065424200844f51005400320063424200bc
:100ac000844f5100e4003a00500037001181e900e2
:100ad00082087800f00090008181410092497800fe
:100ae000e300370020629000c5c6b300854f520076
:100af00007003a009102780064825200840878006e
:100b00001402be004fabde008603780011003700f0
:100b100015c7b300854f520003003200a5c6b300cd
:100b2000854f520006003a00910278006882520018
:100b3000840878005403be004402be00050037005c
:100b40001182e9008408780014027800cfa2de0048
:100b5000612bb9000498be000690be00a060900012
:100b600088c6b30088cf50000d00320028c6b300fd
:100b700088cf500004003a000402fb00cfa2de0040
:100b8000612bb9000800370048c7b30088cf500078
:100b9000030032006644440088cf500004003a004d
:100ba000cfa2de00612bb9000498be000690be0003
:100bb0003002be002003be00f0009000e00f5200a3
:100bc000e08f5a00e00f5b00e08f5b0003003d0008
:100bd00001824100d5c2b3000a0037000012900024
:100be0000418a3000300320001824100b5c2b30023
:100bf000040037000408a3004f00320001824100c6
:100c000005c2b300054a7800490037002062900011
:100c1000c5c6b300854f520006003a009102780025
:100c200064825200840878001402be006033b80069
:100c30001100370015c7b300854f52000300320082
:100c4000a5c6b300854f520006003a009102780015
:100c500068825200840878005403be004402be003b
:100c6000050037001182e90084087800140278003a
:100c70008002eb006033b8000498be000690be000e
:100c8000a060900088c6b30088cf50000d003200ed
:100c900028c6b30088cf500004003a000482fb004d
:100ca0008002eb006033b8000800370048c7b3008b
:100cb00088cf5000030032006644440088cf5000c3
:100cc00004003a008002eb006033b8000498be00d4
:100cd0000690be00801090000138a300160032007c
:100ce0003002be002003be00e00f5200e08f5a0029
:100cf000e00f5b00e08f5b000f00320081c7b300a4
:100d0000814f51000300320081c5b300814f510073
:100d100009003a00f00090000182410005c3b300d1
:100d2000054a78008100e80001824100024a78000b
:100d30008100e80071009800f0009000818141007e
:100d400063009800824078003e003700a061900068
:100d5000c4c6b3001181e90084cf510022003200e3
:100d60000a003c006442520084cf5100250032004a
:100d700004c2e80084cf51001300320068425200e0
:100d800084cf51001e003a000a00370044c7b30068
:100d900084cf51001b0032006642420084cf5100d4
:100da000180032006942520084cf510014003a000a
:100db00005003700820878009200780040589000c3
:100dc000804878002c003700820878009200780074
:100dd000600a9000cfa2de00612bb9008498be00ab
:100de0008690be00240037008208780092007800c8
:100df00060099000cf91de008288be001e0037009f
:100e00001181e90082087800920078006008900063
:100e100080087800180037001181e9008208780006
:100e200012027800cfa2de00612bb9000498be0048
:100e30000690be00f00090008181410063009800a0
:100e400081c7b300220007000b003700f0009000bc
:100e50008181410005003700f00090008181410050
:100e60000204e00001003a0052c2b3008249780057
:100e70008100e800710098000000eb004f0478004a
:100e8000000006008001780002003700b1597800a8
:100e90000201e9000200e000fcff3a000000060049
:100ea000020037000304e000060032000001780071
:100eb00002007800b041780081cf5100f9ff3a007c
:100ec000010037000001eb0002007800000006007e
:100ed000fc874700889fbe008a9fbe008c9fbe0093
:100ee0008e1f78000006780080c5b30080cf5000c8
:100ef0000a0032007740400080cf50000a003200e4
:100f00006940400080cf50000b003200b00121004a
:100f100080bf9f00ae0020000a003700a200210021
:100f200082bf9f0006003700b301210083bf9f00ee
:100f30008e00200003003700b401210084bf9f0011
:100f40000e0120003c02be002c03be000605be00c0
:100f50000404be0040c6b30080cf5000030032003e
:100f60006540400080cf50000b003a00e00f520077
:100f7000e08f5a00e00f5b00e08f5b0006003d0051
:100f80006000b8006011b800040450008584580067
:100f90000605590087855900e80f57000400320004
:100fa00040002000f00f57003a003a0001003700df
:100fb00030002000e00f5400e08f5c00e00f5d0087
:100fc000e08f5d0004003a00dc0890008d012000f5
:100fd0000100e000070032008e00e9008880600018
:100fe0008fba97008180420091407800f1ef9f0016
:100ff0007d012000800078008100e90005003300b9
:101000008b05d1000a85d3008984d3000884d300de
:10101000f9ff3700089ebe000a96be001300370095
:101020008d06e9008e00e900848060000fb997000a
:10103000810041001141780083fd2f008d81410026
:1010400082f77900800178008301e9000500330010
:101050008783d1000683d3008582d3000482d30026
:10106000f9ff3700049ebe000696be003c02be009b
:101070002c03be00e00f5200e08f5a00e00f5b002f
:10108000e08f5b00910034000d00e000e4ff3c00c5
:101090008e0037002c60900081c6b300814f500055
:1010a0000b00320006003c000004e00008003200a3
:1010b000e6c05000814f500052003a000400370053
:1010c000c1c6b300814f50004e003a0023003700e4
:1010d0000800e00004003a005c0890008d01200048
:1010e0000000e00007003200110009000e84d80063
:1010f0000fba97000100420010407800f0ef9f0007
:101100007d012000110009000e84d8000b0037007b
:10111000110009000e04d8008d06e9008e81b90087
:10112000020454008fb8970008844000984178006a
:1011300082fd2f000d0141008377790000047800c3
:101140000800e000020032000d00e000f0ff3c006b
:10115000cfc4de00614db90027003700e00f540016
:10116000e08f5c0004003a005c0890008d012000d4
:101170000000e000080032006171b9000800be0004
:10118000670107000fba9700800042009140780085
:10119000f1ef9f007d0120006171b9000800be00e1
:1011a0004f0107000c0037006171b9000800be0054
:1011b0003c0107008d06e90080f1b90002045400eb
:1011c0008fba9700088442009841780082fd2f0072
:1011d0000d014100837779000004be00e00f50004c
:1011e000e08f5800020032000d00e000eeff3c00ee
:1011f0004fcdde008a057800089ebe000a96be002c
:1012000032003700e00f5400e08f5c00e00f5d001b
:10121000e08f5d0004003a005c0890008d01200022
:101220000000e0000a0032006172b900612bb900d1
:101230000800be000a01be00dc0107000fba9700db
:101240008000420091407800f1ef9f007d01200076
:101250006172b900612bb9000800be000a01be002e
:10126000cb0107000e0037006172b900612bb90095
:101270000800be000a01be00d00107008d06e9008b
:1012800080f2b900040454008fba97000884420029
:101290009842780084fd2f000d02420085777a0085
:1012a000009ebe000296be003c04be002c05be009f
:1012b000e00f5400e08f5c00e00f5d00e08f5d0008
:1012c000020034000d00e000e7ff3c00e80f57008b
:1012d00010003a000c1090000038a3000d003200fe
:1012e000f78f560006003e0080fd2f000d004000e5
:1012f000ef40780000c3b30080cf500005003200fb
:1013000002c3b30071fd2f008d8040008d06e900ff
:1013100082f7780078811600120e98006c00900019
:1013200083fd2f008f8141008d804100d5fe070095
:101330001c089000dc089000810f500006003d0062
:1013400000805000000e98000c1090000040a1009a
:10135000001698000f0037000100e0000d003d006e
:101360008c109000f4806000f08f500009003a006b
:101370007c099000fc009000810051000c09900055
:1013800082805000008050004240a90001003400db
:10139000000e98004f0778004f06be004f05be00b4
:1013a0004f04be00cf01b100000006000400fa00a7
:1013b000889fbe008a9fbe008c1f780000047800c2
:1013c00001067800f80d90007800900080855500a7
:1013d0000808900080855500180890008085550009
:1013e00028089000808555003808900080855500b9
:1013f00048089000808555000002220090bf9f00a1
:1014000000032300a0bf9f00081090000028a30045
:1014100015003a000b00e000130034000b057800c3
:101420008a047800e20f55000100360029002000f0
:10143000c801900009017800ee8057005800900024
:1014400003000100500498000000e0008c0032000e
:101450006808900009004000600c980009055500dc
:101460004240a900eeff3c00780190000200e0003d
:101470000c003400c80190008c00780058009000e7
:1014800003000100500498008080eb000000e000a1
:101490007c003200e8089000780090000080400056
:1014a000600c9800880c90000900e00011003400e6
:1014b00009057800e28f5400010036002a00200060
:1014c000c80190000a017800ec8057005800900095
:1014d00003000100500498000000e00068003200a2
:1014e000680890000a004000600c98008a8454004c
:1014f000edff3700180990000200e0000c003400f6
:10150000c8019000e800900058009000030001001e
:10151000500498008080eb000000e0005900320089
:10152000e80890001808900000804000600c9800c7
:10153000a80c90000900e0001100340009057800b3
:10154000e28f5400010036002a002000c8019000fc
:101550000a017800ec805700580090000300010059
:10156000500498000000e000450032006808900038
:101570000a004000600c98008a845400edff370098
:10158000380990000200e0000e003400e8009000ee
:101590001808900080804000c8019000580090001a
:1015a00003000100500498008080eb000000e00080
:1015b00034003200e80890003808900000804000b5
:1015c000600c9800c80c90000900e0001100340085
:1015d00009057800e28f5400010036002a0020003f
:1015e000c80190000a017800ec8057005800900074
:1015f00003000100500498000000e00020003200c9
:10160000680890000a004000600c98008a8454002a
:10161000edff3700081090008000eb000028a300c9
:10162000180032000b00e000160034008b04780034
:1016300009057800e28f5400010036002a002000de
:10164000c80190000a017800ee8057005800900011
:1016500003000100500498000000e0000800320080
:10166000680890000a004000600c98008a845400ca
:101670004240a900eeff3c008000eb000100370073
:101680008080eb00010078004f0678004f05be0017
:101690004f04be000080fa00000006000108780038
:1016a00000000600839f68000100e00002003d008a
:1016b00060001000e08018000300e00002003d0020
:1016c00060011100e0811900050007004f00e000f3
:1016d00002003b0060001000e080180000000600df
:1016e0006022b800060220000000d0008180d200f5
:1016f0000482d2008582d2000000a00002025200c3
:1017000083825a00030031000202420083824a00b1
:101710000000a1000603e900f3ff3a000000060004
:10172000efff07000400be0000000600889fbe0017
:101730008a9fbe0030044200b0844a0030054b004e
:1017400090854b006000b1000898be000a90be0072
:101750000440e10005c8e10006d0e10007d8e1003f
:1017600002003100680040001008e8004f05be008c
:101770004f04be0000000600889fbe008a9fbe0086
:101780003004be002005be000418540005985c001b
:1017900006185d0007985d00110020000440e1007c
:1017a00005c8e10006d0e10007d8e10001003900da
:1017b0008000eb00108810004f05be004f04be00f3
:1017c000000006001200fa00889fbe008a9fbe003b
:1017d0008c9fbe00e0b79f00f1b79f0082bf9f00c3
:1017e00093bf9f000605be000404be000000eb008e
:1017f000d0b79f00c0b79f00b0b79f00a0b79f00b1
:1018000090b79f000006eb005fb19700cfb0970044
:10181000820141003fb097000200e00004003d005b
:10182000370007007e805700c0ff07000300370025
:10183000330007007e805700cfff0700dfb6970018
:101840000d00e0000c0035006fb29700ffb297006a
:101850000fbb97009fbb97001000200001002000e5
:101860006011b800000272008182720002037300ee
:10187000838373001b0007000c06e80001042000ae
:10188000810f5600e0ff3a000d00e00004003d002b
:101890000802be000a03be007e805700a3ff0700b7
:1018a0005fa897000000e00005003a001fb2970013
:1018b000afb297003fb39700cfb39700090007007e
:1018c0006fb09700ffb097000fb997009fb99700ce
:1018d0004f06be004f05be004f04be000080fa0058
:1018e000000006000100070000000600a4b79f00ea
:1018f000b5b79f00c6b79f00d7b79f00000006008e
:101900004f09de0082817100b3b79f004f01de00f6
:101910008180400082807000a1b79f008fb0970047
:101920004f09de00000040000200700090b79f00e9
:101930007fa897004f01de00818040008280700008
:1019400081b79f000d0007004f3ade000000400005
:1019500004007000f0af9f0008000700040242007e
:1019600085824a0006034b0087834b00dfff070098
:101970000802be000a03be00000006002fb2970056
:10198000bfb297004fb39700dfb397000000060087
:10199000881f780018002000881f780089ff070042
:1019a0008f87e9004f04780000000600801feb00dd
:1019b00084ff07008f87e90000000600889fbe00b3
:1019c0008a9fbe00e00f5000e08f5800e00f5900e2
:1019d000e08f59000c003d006044b8006055b8002d
:1019e0000000540081805c0002015d0083815d0085
:1019f000180020001500070008003d00180007002f
:101a00000004eb00050037000004eb000f000700a6
:101a100002003d001200070018002000dcff070054
:101a20000800e000060032006022b8006033b80011
:101a30000000520081805a0002015b0083815b003c
:101a40004f05be004f04be0000000600e00f52002c
:101a5000e08f5a00e00f5b00e08f5b0000000600a3
:101a60006044b8006055b8000402540085825c00f0
:101a700006035d0087835d0000000600889fbe00ae
:101a80008a9fbe008c1f7800e00f5000e08f580046
:101a9000e00f5900e08f59000d003d006044b80090
:101aa0006055b8000000540081805c0002015d00b8
:101ab00083815d001c0020000820e10009a8e100ee
:101ac0000ab0e1000bb8e1000d003d00080037004e
:101ad0000006eb00e00f5200e08f5a00e00f5b00c1
:101ae000e08f5b0006003d006044b8006055b80020
:101af0000402540085825c0006035d0087835d005c
:101b0000aaff07000c00e000060032006022b800c7
:101b10006033b8000000520081805a0002015b006f
:101b200083815b004f0678004f05be004f04be0066
:041b300000000600ab
:020000040000fa
:0c1b3400253000003464000000000000b8
:020000040000fa
:101b40000000fa0080252000010020005d01070050
:101b50000602a80000000000301080006100600054
:101b60000000e000fcff3a0080252000010020007a
:101b7000540107000080fa00000006000000fa008f
:101b800080252000010020004e0107000642a80029
:101b90000000000030108000640060000000e000e1
:101ba000fcff3a00802520000100200045010700cd
:101bb0000080fa00000006000200fa00004f7800e2
:101bc0000000000040108000610060000000e000a4
:101bd000fcff3a001e00fb0010108800802520004a
:101be00001002000370107000080fa000000060015
:101bf0000200fa00000f78001e0078002010880014
:101c000007e2a8000080fa00000006000400fa00c5
:101c1000000f780011079800c9ff070020ceb3001d
:101c2000e5ff070000ee220001002000250107006b
:101c300060c7b300e0ff070000ee220001002000b3
:101c40002001070070c7b300dbff070000ee220091
:101c5000010020001b0107001e00900000407800da
:101c6000d5ff070000ee220001002000150107004b
:101c70001e00780010407800cfff070000ee220021
:101c8000010020000f0107001e00e800104078004e
:101c9000c9ff070000ee2200010020000901070033
:101ca0001e80e80010407800c3ff070000ee22000d
:101cb00001002000030107009e00780063804000bf
:101cc00010407800bcff070000ee22000100200059
:101cd000fc000700a9ff07000080fa0000000600d2
:101ce0000000fa0021e3a90025e3a90021198000e2
:101cf000f00f2e008080600000f0200001007000d6
:101d0000201988002463ef002223ef003223ef0024
:101d10002143a80021a3a900001980000080a10090
:101d20000090a10000198800001980000050a10057
:101d30000060a1000070a100001988002043a900e4
:101d40000080fa00000006000200fa00004f780050
:101d500021e3a90000d82800b1052000d900070020
:101d60009e4078007fc060000080fb007f00600024
:101d70004219800001fe2f00810061000100700007
:101d80004019880000d82800b1052000cd000700c8
:101d900021e3a8000080fa00000006000000fa001d
:101da0002023a800000000000019800062006000ed
:101db0000000e000fcff32002023a90005003700ee
:101dc0000000000000198000610060000000e000d9
:101dd000fcff320000198000620060000000e0009b
:101de000f7ff3a00001880008000eb00f8f90700c8
:101df0000080fa00000006000000fa00103a80009f
:101e000000c0a00000d0a10000e0a100103a8800ae
:101e1000103a80000080a0000090a10000a0a10066
:101e2000103a880042e7a90042c7a90042a7a800cb
:101e300045e7a900203a800000c0a10000d0a10021
:101e400000e0a100203a88004567a900203a800000
:101e50000080a1000090a10000a0a100203a88000d
:101e6000203a80000060a1000070a100203a8800a4
:101e7000213a800000fe2f0000806000203a880098
:101e8000313a800000e02f0080806000f0032000e5
:101e900001007000303a8800413a800000fc2f00b9
:101ea00000806000403a88000080fa0000000600d0
:101eb0003600f800809fbe00829fbe00849fbe0057
:101ec000869fbe003200f8003400f80010002000a9
:101ed000a001880000202000900188000000000080
:101ee0000000fa0010808000801f7800a0d9280030
:101ef000801f78006004210013fa0700e487570070
:101f0000308080000000e000060032003080800059
:101f1000e10f500003003a00108080000000e8004c
:101f200010808800010120006004210037ff0700b5
:101f30000108a9000080fa003400f9003200f9001d
:101f40004f03be004f02be004f01be004f00be0057
:101f50003600f900004006000200fa00204280002e
:101f60000000a1000010a1000020a0002042880075
:101f70000a21ef00000328009008880070922000da
:101f8000700888000108a9002108a8000f8ea90088
:101f9000018ea800000ea900038ea900020ea90060
:101fa0000000eb00000f7800b012200010ff0700c7
:101fb00091ff070005003700000000000300370014
:101fc00000000000010037000000000030808000a9
:101fd0000000e0000a003a001170800000002100bb
:101fe000008060000000e000f3ff320010002000dd
:101ff000308088000a21ef000230ef00f3ff370045
:1020000030808000e10f5000edff3a001170800039
:1020100000002100008060000000e000eaff3a00bc
:102020000630ef0010002000000f78000a21ef00ba
:04203000e6ff370090
:020000040000fa
:102034004610000004000000820000003030300030
:1020440030000000001000000a00000080000000c2
:102054002c1000001a00000082000000686a6c0066
:10206400747a4c0000000100000200000400080023
:1020740000100000000020002b2d23003000000081
:102084000a100000220000008200000030313200fb
:102094003334350036373800394142004344450073
:1020a40046003000313233003435360037383900d9
:1020b4006162630064656600000000007e108000b9
:020000040000fa
:1020c400f03fb1000180b10006003500ee030900c5
:1020d40000000000403fb1000180b100fbff3d0063
:1020e4001000b000203fb00002003500008009005d
:0820f4000000000000000600de
:020000040000fa
:0420fc0000000000e0
:020000040000fa
:020000040005f5
:045fe000cdff0000f1
:020000040000fa
:020000040005f5
:045fe400ffff0000bb
:020000040000fa
:020000040005f5
:045fe800ffff0000b7
:020000040000fa
:020000040005f5
:045fec00bfff0000f3
:020000040000fa
:020000040005f5
:045ff000f9ff0000b5
:020000040000fa
:020000040005f5
:045ff400ffff0000ab
:00000001FF
